{"abi":[{"type":"constructor","inputs":[{"name":"_usdc","type":"address","internalType":"address"},{"name":"_agl","type":"address","internalType":"address"},{"name":"_tokensPerUSDC","type":"uint256","internalType":"uint256"},{"name":"_deployer","type":"address","internalType":"address"}],"stateMutability":"nonpayable"},{"type":"function","name":"USDC_DECIMALS","inputs":[],"outputs":[{"name":"","type":"uint256","internalType":"uint256"}],"stateMutability":"view"},{"type":"function","name":"agl","inputs":[],"outputs":[{"name":"","type":"address","internalType":"contract IAGLToken"}],"stateMutability":"view"},{"type":"function","name":"deployer","inputs":[],"outputs":[{"name":"","type":"address","internalType":"address"}],"stateMutability":"view"},{"type":"function","name":"deposit","inputs":[{"name":"usdcAmount","type":"uint256","internalType":"uint256"}],"outputs":[],"stateMutability":"nonpayable"},{"type":"function","name":"getTokensPerUSDC","inputs":[],"outputs":[{"name":"","type":"uint256","internalType":"uint256"}],"stateMutability":"view"},{"type":"function","name":"setTokensPerUSDC","inputs":[{"name":"newRate","type":"uint256","internalType":"uint256"}],"outputs":[],"stateMutability":"nonpayable"},{"type":"function","name":"tokensPerUSDC","inputs":[],"outputs":[{"name":"","type":"uint256","internalType":"uint256"}],"stateMutability":"view"},{"type":"function","name":"usdc","inputs":[],"outputs":[{"name":"","type":"address","internalType":"contract IERC20"}],"stateMutability":"view"},{"type":"function","name":"withdraw","inputs":[{"name":"aglAmount","type":"uint256","internalType":"uint256"}],"outputs":[],"stateMutability":"nonpayable"},{"type":"function","name":"withdrawUSDC","inputs":[{"name":"to","type":"address","internalType":"address"},{"name":"amount","type":"uint256","internalType":"uint256"}],"outputs":[],"stateMutability":"nonpayable"},{"type":"event","name":"Deposited","inputs":[{"name":"user","type":"address","indexed":true,"internalType":"address"},{"name":"usdcAmount","type":"uint256","indexed":false,"internalType":"uint256"},{"name":"aglMinted","type":"uint256","indexed":false,"internalType":"uint256"}],"anonymous":false},{"type":"event","name":"TokensPerUSDCUpdated","inputs":[{"name":"newRate","type":"uint256","indexed":false,"internalType":"uint256"}],"anonymous":false},{"type":"event","name":"Withdrawn","inputs":[{"name":"user","type":"address","indexed":true,"internalType":"address"},{"name":"aglBurned","type":"uint256","indexed":false,"internalType":"uint256"},{"name":"usdcReturned","type":"uint256","indexed":false,"internalType":"uint256"}],"anonymous":false},{"type":"error","name":"ReentrancyGuardReentrantCall","inputs":[]},{"type":"error","name":"SafeERC20FailedOperation","inputs":[{"name":"token","type":"address","internalType":"address"}]}],"bytecode":{"object":"0x60c0604052346100685761001d61001461017b565b92919091610474565b61002561006d565b6111f76105cb823960805181818161015d015281816108e501528181610a7d0152610c6e015260a0518181816102aa015281816108750152610ce501526111f790f35b610073565b60405190565b5f80fd5b601f801991011690565b634e487b7160e01b5f52604160045260245ffd5b9061009f90610077565b810190811060018060401b038211176100b757604052565b610081565b906100cf6100c861006d565b9283610095565b565b5f80fd5b60018060a01b031690565b6100e9906100d5565b90565b6100f5816100e0565b036100fc57565b5f80fd5b9050519061010d826100ec565b565b90565b61011b8161010f565b0361012257565b5f80fd5b9050519061013382610112565b565b6080818303126101765761014b825f8301610100565b9261017361015c8460208501610100565b9361016a8160408601610126565b93606001610100565b90565b6100d1565b6101996117c28038038061018e816100bc565b928339810190610135565b90919293565b90565b90565b6101b96101b46101be9261019f565b6101a2565b6100d5565b90565b6101ca906101a5565b90565b60209181520190565b5f7f496e76616c696420555344430000000000000000000000000000000000000000910152565b61020a600c6020926101cd565b610213816101d6565b0190565b61022c9060208101905f8183039101526101fd565b90565b1561023657565b61023e61006d565b62461bcd60e51b81528061025460048201610217565b0390fd5b5f7f496e76616c69642041474c000000000000000000000000000000000000000000910152565b61028c600b6020926101cd565b61029581610258565b0190565b6102ae9060208101905f81830391015261027f565b90565b156102b857565b6102c061006d565b62461bcd60e51b8152806102d660048201610299565b0390fd5b6102ee6102e96102f39261019f565b6101a2565b61010f565b90565b5f7f496e76616c696420726174650000000000000000000000000000000000000000910152565b61032a600c6020926101cd565b610333816102f6565b0190565b61034c9060208101905f81830391015261031d565b90565b1561035657565b61035e61006d565b62461bcd60e51b81528061037460048201610337565b0390fd5b61038c610387610391926100d5565b6101a2565b6100d5565b90565b61039d90610378565b90565b6103a990610394565b90565b6103b590610378565b90565b6103c1906103ac565b90565b5f1b90565b906103d55f19916103c4565b9181191691161790565b6103f36103ee6103f89261010f565b6101a2565b61010f565b90565b90565b9061041361040e61041a926103df565b6103fb565b82546103c9565b9055565b9061042f60018060a01b03916103c4565b9181191691161790565b61044290610378565b90565b61044e90610439565b90565b90565b9061046961046461047092610445565b610451565b825461041e565b9055565b916104ff610508926104f761050f969561048c61053d565b6104b1816104aa6104a461049f5f6101c1565b6100e0565b916100e0565b141561022f565b6104d6836104cf6104c96104c45f6101c1565b6100e0565b916100e0565b14156102b1565b6104f2856104ec6104e65f6102da565b9161010f565b1161034f565b6103a0565b6080526103b8565b60a0525f6103fe565b6001610454565b565b90565b61052861052361052d92610511565b6101a2565b61010f565b90565b61053a6001610514565b90565b61055f610548610530565b5f6105596105546105b3565b6105c7565b016103fe565b565b5f90565b90565b90565b61057f61057a61058492610565565b6103c4565b610568565b90565b6105b07f9b779b17422d0df92223018b32b4d1fa46e071723d6817e2486d003becc55f0061056b565b90565b6105bb610561565b506105c4610587565b90565b9056fe60806040526004361015610013575b610561565b61001d5f356100bc565b80632e1a7d4d146100b75780633e413bee146100b257806344471fd9146100ad5780635aa94b09146100a857806382053d7d146100a3578063aaaeb9591461009e578063ad1044b914610099578063b6b55f2514610094578063c1419def1461008f5763d5f394880361000e5761052c565b610495565b610429565b6103f4565b6103c1565b61038c565b6102fa565b610274565b6101e3565b610119565b60e01c90565b60405190565b5f80fd5b5f80fd5b90565b6100dc816100d0565b036100e357565b5f80fd5b905035906100f4826100d3565b565b9060208282031261010f5761010c915f016100e7565b90565b6100cc565b5f0190565b346101475761013161012c3660046100f6565b610989565b6101396100c2565b8061014381610114565b0390f35b6100c8565b5f91031261015657565b6100cc565b7f000000000000000000000000000000000000000000000000000000000000000090565b60018060a01b031690565b90565b6101a161019c6101a69261017f565b61018a565b61017f565b90565b6101b29061018d565b90565b6101be906101a9565b90565b6101ca906101b5565b9052565b91906101e1905f602085019401906101c1565b565b34610213576101f336600461014c565b61020f6101fe61015b565b6102066100c2565b918291826101ce565b0390f35b6100c8565b6102219061017f565b90565b61022d81610218565b0361023457565b5f80fd5b9050359061024582610224565b565b919060408382031261026f578061026361026c925f8601610238565b936020016100e7565b90565b6100cc565b346102a35761028d610287366004610247565b90610aa6565b6102956100c2565b8061029f81610114565b0390f35b6100c8565b7f000000000000000000000000000000000000000000000000000000000000000090565b6102d5906101a9565b90565b6102e1906102cc565b9052565b91906102f8905f602085019401906102d8565b565b3461032a5761030a36600461014c565b6103266103156102a8565b61031d6100c2565b918291826102e5565b0390f35b6100c8565b1c90565b90565b61034690600861034b930261032f565b610333565b90565b906103599154610336565b90565b6103675f5f9061034e565b90565b610373906100d0565b9052565b919061038a905f6020850194019061036a565b565b346103bc5761039c36600461014c565b6103b86103a761035c565b6103af6100c2565b91829182610377565b0390f35b6100c8565b346103ef576103d96103d43660046100f6565b610c02565b6103e16100c2565b806103eb81610114565b0390f35b6100c8565b346104245761040436600461014c565b61042061040f610c11565b6104176100c2565b91829182610377565b0390f35b6100c8565b346104575761044161043c3660046100f6565b610dcd565b6104496100c2565b8061045381610114565b0390f35b6100c8565b90565b61047361046e6104789261045c565b61018a565b6100d0565b90565b610487620f424061045f565b90565b61049261047b565b90565b346104c5576104a536600461014c565b6104c16104b061048a565b6104b86100c2565b91829182610377565b0390f35b6100c8565b60018060a01b031690565b6104e59060086104ea930261032f565b6104ca565b90565b906104f891546104d5565b90565b61050760015f906104ed565b90565b61051390610218565b9052565b919061052a905f6020850194019061050a565b565b3461055c5761053c36600461014c565b6105586105476104fb565b61054f6100c2565b91829182610517565b0390f35b6100c8565b5f80fd5b61057690610571610e04565b610813565b61057e610e5c565b565b90565b61059761059261059c92610580565b61018a565b6100d0565b90565b60209181520190565b5f7f416d6f756e74203d203000000000000000000000000000000000000000000000910152565b6105dc600a60209261059f565b6105e5816105a8565b0190565b6105fe9060208101905f8183039101526105cf565b90565b1561060857565b6106106100c2565b62461bcd60e51b815280610626600482016105e9565b0390fd5b634e487b7160e01b5f52601160045260245ffd5b61064d610653919392936100d0565b926100d0565b9161065f8382026100d0565b92818404149015171561066e57565b61062a565b5f1c90565b61068461068991610673565b610333565b90565b6106969054610678565b90565b634e487b7160e01b5f52601260045260245ffd5b6106b96106bf916100d0565b916100d0565b9081156106ca570490565b610699565b5f7f546f6f20736d616c6c0000000000000000000000000000000000000000000000910152565b610703600960209261059f565b61070c816106cf565b0190565b6107259060208101905f8183039101526106f6565b90565b1561072f57565b6107376100c2565b62461bcd60e51b81528061074d60048201610710565b0390fd5b5f80fd5b601f801991011690565b634e487b7160e01b5f52604160045260245ffd5b9061077d90610755565b810190811067ffffffffffffffff82111761079757604052565b61075f565b60e01b90565b5f9103126107ac57565b6100cc565b9160206107d29294936107cb60408201965f83019061050a565b019061036a565b565b6107dc6100c2565b3d5f823e3d90fd5b6107ed906101a9565b90565b91602061081192949361080a60408201965f83019061036a565b019061036a565b565b61082f816108296108235f610583565b916100d0565b11610601565b6108536108448261083e61047b565b9061063e565b61084d5f61068c565b906106ad565b906108708261086a6108645f610583565b916100d0565b11610728565b6108997f00000000000000000000000000000000000000000000000000000000000000006102cc565b639dc29fac338392803b15610984576108c55f80946108d06108b96100c2565b9788968795869461079c565b8452600484016107b1565b03925af1801561097f57610953575b5061090c7f0000000000000000000000000000000000000000000000000000000000000000338491610e85565b3390916109397f92ccf450a286a957af52509bc1c9939d1a6a481783e142e41e2499f0bb66ebc6926107e4565b9261094e6109456100c2565b928392836107f0565b0390a2565b610972905f3d8111610978575b61096a8183610773565b8101906107a2565b5f6108df565b503d610960565b6107d4565b610751565b61099290610565565b565b906109a6916109a1610f95565b610a52565b565b6109bc6109b76109c192610580565b61018a565b61017f565b90565b6109cd906109a8565b90565b5f7f496e76616c696420616464726573730000000000000000000000000000000000910152565b610a04600f60209261059f565b610a0d816109d0565b0190565b610a269060208101905f8183039101526109f7565b90565b15610a3057565b610a386100c2565b62461bcd60e51b815280610a4e60048201610a11565b0390fd5b610aa491610a7b82610a74610a6e610a695f6109c4565b610218565b91610218565b1415610a29565b7f0000000000000000000000000000000000000000000000000000000000000000919091610e85565b565b90610ab091610994565b565b610ac390610abe610f95565b610ba1565b565b5f7f496e76616c696420726174650000000000000000000000000000000000000000910152565b610af9600c60209261059f565b610b0281610ac5565b0190565b610b1b9060208101905f818303910152610aec565b90565b15610b2557565b610b2d6100c2565b62461bcd60e51b815280610b4360048201610b06565b0390fd5b5f1b90565b90610b585f1991610b47565b9181191691161790565b610b76610b71610b7b926100d0565b61018a565b6100d0565b90565b90565b90610b96610b91610b9d92610b62565b610b7e565b8254610b4c565b9055565b610bbd81610bb7610bb15f610583565b916100d0565b11610b1e565b610bc7815f610b81565b610bfd7f75f76634e69476d394c3d07e04139ab2317f49004713427da0e86895a57442d791610bf46100c2565b91829182610377565b0390a1565b610c0b90610ab2565b565b5f90565b610c19610c0d565b50610c235f61068c565b90565b610c3790610c32610e04565b610c4d565b610c3f610e5c565b565b610c4a906101a9565b90565b610c6981610c63610c5d5f610583565b916100d0565b11610601565b610c9f7f000000000000000000000000000000000000000000000000000000000000000033610c9730610c41565b908492610fbc565b610cc3610cb582610caf5f61068c565b9061063e565b610cbd61047b565b906106ad565b90610ce082610cda610cd45f610583565b916100d0565b11610728565b610d097f00000000000000000000000000000000000000000000000000000000000000006102cc565b6340c10f19338492803b15610dc857610d355f8094610d40610d296100c2565b9788968795869461079c565b8452600484016107b1565b03925af18015610dc357610d97575b50339091610d7d7f73a19dd210f1a7f902193214c0ee91dd35ee5b4d920cba8d519eca65a7b488ca926107e4565b92610d92610d896100c2565b928392836107f0565b0390a2565b610db6905f3d8111610dbc575b610dae8183610773565b8101906107a2565b5f610d4f565b503d610da4565b6107d4565b610751565b610dd690610c26565b565b90565b610def610dea610df492610dd8565b61018a565b6100d0565b90565b610e016002610ddb565b90565b610e0c611007565b610e2e610e17610df7565b5f610e28610e23611083565b611097565b01610b81565b565b90565b610e47610e42610e4c92610e30565b61018a565b6100d0565b90565b610e596001610e33565b90565b610e7e610e67610e4f565b5f610e78610e73611083565b611097565b01610b81565b565b151590565b91610e9e91610e9891849160019261109e565b15610e80565b610ea55750565b610eb1610ec8916101b5565b5f918291635274afe760e01b835260048301610517565b0390fd5b610ed8610edd91610673565b6104ca565b90565b610eea9054610ecc565b90565b60207f66756e6374696f6e000000000000000000000000000000000000000000000000917f4f6e6c7920746865206465706c6f7965722063616e2063616c6c2074686973205f8201520152565b610f47602860409261059f565b610f5081610eed565b0190565b610f699060208101905f818303910152610f3a565b90565b15610f7357565b610f7b6100c2565b62461bcd60e51b815280610f9160048201610f54565b0390fd5b610fba33610fb4610fae610fa96001610ee0565b610218565b91610218565b14610f6c565b565b9290610fd992610fd3928592919091600193611108565b15610e80565b610fe05750565b610fec611003916101b5565b5f918291635274afe760e01b835260048301610517565b0390fd5b61100f611181565b61101557565b5f633ee5aeb560e01b81528061102d60048201610114565b0390fd5b5f90565b90565b90565b61104f61104a61105492611035565b610b47565b611038565b90565b6110807f9b779b17422d0df92223018b32b4d1fa46e071723d6817e2486d003becc55f0061103b565b90565b61108b611031565b50611094611057565b90565b90565b5f90565b90919392936110ab61109a565b5063a9059cbb60e01b92604051935f525f1960601c1660045260245260205f60448180855af19360015f51148516156110e6575b5050604052565b84929415166110ff575f903b113d151616915f806110df565b833d5f823e3d90fd5b9194939492909261111761109a565b506323b872dd60e01b93604051945f525f1960601c166004525f1960601c1660245260445260205f60648180855af19360015f511485161561115f575b50506040525f606052565b8492941516611178575f903b113d151616915f80611154565b833d5f823e3d90fd5b61118961109a565b506111a45f61119e611199611083565b611097565b0161068c565b6111bd6111b76111b2610df7565b6100d0565b916100d0565b149056fea26469706673582212206485694922330a5074d8fab8cda9b499ac5e6c19e82a05e5bdb28cf279166cdb64736f6c63430008210033","linkReferences":{}},"methodIdentifiers":{"USDC_DECIMALS()":"c1419def","agl()":"5aa94b09","deployer()":"d5f39488","deposit(uint256)":"b6b55f25","getTokensPerUSDC()":"ad1044b9","setTokensPerUSDC(uint256)":"aaaeb959","tokensPerUSDC()":"82053d7d","usdc()":"3e413bee","withdraw(uint256)":"2e1a7d4d","withdrawUSDC(address,uint256)":"44471fd9"},"id":31}