{"abi":[{"type":"constructor","inputs":[{"name":"initialSupply","type":"uint256","internalType":"uint256"}],"stateMutability":"nonpayable"},{"type":"function","name":"allowance","inputs":[{"name":"owner","type":"address","internalType":"address"},{"name":"spender","type":"address","internalType":"address"}],"outputs":[{"name":"","type":"uint256","internalType":"uint256"}],"stateMutability":"view"},{"type":"function","name":"approve","inputs":[{"name":"spender","type":"address","internalType":"address"},{"name":"value","type":"uint256","internalType":"uint256"}],"outputs":[{"name":"","type":"bool","internalType":"bool"}],"stateMutability":"nonpayable"},{"type":"function","name":"balanceOf","inputs":[{"name":"account","type":"address","internalType":"address"}],"outputs":[{"name":"","type":"uint256","internalType":"uint256"}],"stateMutability":"view"},{"type":"function","name":"burn","inputs":[{"name":"from","type":"address","internalType":"address"},{"name":"amount","type":"uint256","internalType":"uint256"}],"outputs":[],"stateMutability":"nonpayable"},{"type":"function","name":"decimals","inputs":[],"outputs":[{"name":"","type":"uint8","internalType":"uint8"}],"stateMutability":"view"},{"type":"function","name":"gateway","inputs":[],"outputs":[{"name":"","type":"address","internalType":"address"}],"stateMutability":"view"},{"type":"function","name":"mint","inputs":[{"name":"to","type":"address","internalType":"address"},{"name":"amount","type":"uint256","internalType":"uint256"}],"outputs":[],"stateMutability":"nonpayable"},{"type":"function","name":"name","inputs":[],"outputs":[{"name":"","type":"string","internalType":"string"}],"stateMutability":"view"},{"type":"function","name":"setGateway","inputs":[{"name":"_gateway","type":"address","internalType":"address"}],"outputs":[],"stateMutability":"nonpayable"},{"type":"function","name":"symbol","inputs":[],"outputs":[{"name":"","type":"string","internalType":"string"}],"stateMutability":"view"},{"type":"function","name":"totalSupply","inputs":[],"outputs":[{"name":"","type":"uint256","internalType":"uint256"}],"stateMutability":"view"},{"type":"function","name":"transfer","inputs":[{"name":"to","type":"address","internalType":"address"},{"name":"value","type":"uint256","internalType":"uint256"}],"outputs":[{"name":"","type":"bool","internalType":"bool"}],"stateMutability":"nonpayable"},{"type":"function","name":"transferFrom","inputs":[{"name":"from","type":"address","internalType":"address"},{"name":"to","type":"address","internalType":"address"},{"name":"value","type":"uint256","internalType":"uint256"}],"outputs":[{"name":"","type":"bool","internalType":"bool"}],"stateMutability":"nonpayable"},{"type":"event","name":"Approval","inputs":[{"name":"owner","type":"address","indexed":true,"internalType":"address"},{"name":"spender","type":"address","indexed":true,"internalType":"address"},{"name":"value","type":"uint256","indexed":false,"internalType":"uint256"}],"anonymous":false},{"type":"event","name":"Transfer","inputs":[{"name":"from","type":"address","indexed":true,"internalType":"address"},{"name":"to","type":"address","indexed":true,"internalType":"address"},{"name":"value","type":"uint256","indexed":false,"internalType":"uint256"}],"anonymous":false},{"type":"error","name":"ERC20InsufficientAllowance","inputs":[{"name":"spender","type":"address","internalType":"address"},{"name":"allowance","type":"uint256","internalType":"uint256"},{"name":"needed","type":"uint256","internalType":"uint256"}]},{"type":"error","name":"ERC20InsufficientBalance","inputs":[{"name":"sender","type":"address","internalType":"address"},{"name":"balance","type":"uint256","internalType":"uint256"},{"name":"needed","type":"uint256","internalType":"uint256"}]},{"type":"error","name":"ERC20InvalidApprover","inputs":[{"name":"approver","type":"address","internalType":"address"}]},{"type":"error","name":"ERC20InvalidReceiver","inputs":[{"name":"receiver","type":"address","internalType":"address"}]},{"type":"error","name":"ERC20InvalidSender","inputs":[{"name":"sender","type":"address","internalType":"address"}]},{"type":"error","name":"ERC20InvalidSpender","inputs":[{"name":"spender","type":"address","internalType":"address"}]}],"bytecode":{"object":"0x60806040523461002f576100196100146100e0565b61023d565b610021610034565b6111526108a0823961115290f35b61003a565b60405190565b5f80fd5b601f801991011690565b634e487b7160e01b5f52604160045260245ffd5b906100669061003e565b810190811060018060401b0382111761007e57604052565b610048565b9061009661008f610034565b928361005c565b565b5f80fd5b90565b6100a88161009c565b036100af57565b5f80fd5b905051906100c08261009f565b565b906020828203126100db576100d8915f016100b3565b90565b610098565b6100fe6119f2803803806100f381610083565b9283398101906100c2565b90565b60018060401b03811161011d5761011960209161003e565b0190565b610048565b9061013461012f83610101565b610083565b918252565b5f7f4167656e744c6179657220546f6b656e00000000000000000000000000000000910152565b61016a6010610122565b9061017760208301610139565b565b610181610160565b90565b5f7f41474c0000000000000000000000000000000000000000000000000000000000910152565b6101b56003610122565b906101c260208301610184565b565b6101cc6101ab565b90565b90565b60ff1690565b634e487b7160e01b5f52601160045260245ffd5b6101f5906101d2565b604d811161020357600a0a90565b6101d8565b61021761021d9193929361009c565b9261009c565b9161022983820261009c565b92818404149015171561023857565b6101d8565b61027b9061025a61024c610179565b6102546101c4565b906104da565b610275339161026f61026a610515565b6101ec565b90610208565b9061058f565b565b5190565b634e487b7160e01b5f52602260045260245ffd5b90600160028304921680156102b5575b60208310146102b057565b610281565b91607f16916102a5565b5f5260205f2090565b601f602091010490565b1b90565b919060086102f19102916102eb5f19846102d2565b926102d2565b9181191691161790565b61030f61030a6103149261009c565b6101cf565b61009c565b90565b90565b919061033061032b610338936102fb565b610317565b9083546102d6565b9055565b5f90565b6103529161034c61033c565b9161031a565b565b5f5b82811061036257505050565b806103715f6001938501610340565b01610356565b9190601f8111610387575b505050565b818111610394575b610382565b6103a96103a36103c7946102bf565b916102c8565b9160206103b5826102c8565b91106103cf575b809101910390610354565b5f808061038f565b505f6103bc565b1c90565b906103ea905f19906008026103d6565b191690565b816103f9916103da565b906002021790565b9061040b8161027d565b9060018060401b0382116104c95761042d826104278554610295565b85610377565b602090601f831160011461046157918091610450935f92610455575b50506103ef565b90555b565b90915001515f80610449565b601f19831691610470856102bf565b925f5b8181106104b157509160029391856001969410610497575b50505002019055610453565b6104a7910151601f8416906103da565b90555f808061048b565b91936020600181928787015181550195019201610473565b610048565b906104d891610401565b565b906104e96104f09260036104ce565b60046104ce565b565b5f90565b90565b61050d610508610512926104f6565b6101cf565b6101d2565b90565b61051d6104f2565b5061052860126104f9565b90565b90565b60018060a01b031690565b61054d6105486105529261052b565b6101cf565b61052e565b90565b61055e90610539565b90565b61056a9061052e565b90565b61057690610561565b9052565b919061058d905f6020850194019061056d565b565b806105aa6105a461059f5f610555565b610561565b91610561565b146105c6576105c4916105bc5f610555565b919091610730565b565b6105e96105d25f610555565b5f91829163ec442f0560e01b83526004830161057a565b0390fd5b6106016105fc6106069261052e565b6101cf565b61052e565b90565b610612906105ed565b90565b61061e90610609565b90565b9061062b90610615565b5f5260205260405f2090565b5f1c90565b90565b61064b61065091610637565b61063c565b90565b61065d905461063f565b90565b6106699061009c565b9052565b60409061069661069d949695939661068c60608401985f85019061056d565b6020830190610660565b0190610660565b565b906106aa910361009c565b90565b5f1b90565b906106be5f19916106ad565b9181191691161790565b906106dd6106d86106e4926102fb565b610317565b82546106b2565b9055565b6106f76106fd9193929361009c565b9261009c565b820180921161070857565b6101d8565b90610718910161009c565b90565b919061072e905f60208501940190610660565b565b9190918061074e6107486107435f610555565b610561565b91610561565b145f1461082f5761077261076b836107666002610653565b6106e8565b60026106c8565b5b8261078e6107886107835f610555565b610561565b91610561565b145f14610803576107b26107ab836107a66002610653565b61069f565b60026106c8565b5b9190916107fe6107ec6107e67fddf252ad1be2c89b69c2b068fc378daa952ba7f163c4a11628f55a4df523b3ef93610615565b93610615565b936107f5610034565b9182918261071b565b0390a3565b61082a826108246108155f8790610621565b9161081f83610653565b61070d565b906106c8565b6107b3565b61084261083d5f8390610621565b610653565b8061085561084f8561009c565b9161009c565b1061087d5761086861087891849061069f565b6108735f8490610621565b6106c8565b610773565b9061089b9091925f93849363391434e360e21b85526004850161066d565b0390fdfe60806040526004361015610013575b610619565b61001d5f356100ec565b806306fdde03146100e7578063095ea7b3146100e2578063116191b6146100dd57806318160ddd146100d857806323b872dd146100d3578063313ce567146100ce57806340c10f19146100c957806370a08231146100c457806390646b4a146100bf57806395d89b41146100ba5780639dc29fac146100b5578063a9059cbb146100b05763dd62ed3e0361000e576105e3565b610580565b61054c565b610517565b6104e4565b6104af565b61045d565b610423565b6103c5565b610356565b6102ff565b610263565b61017a565b60e01c90565b60405190565b5f80fd5b5f80fd5b5f91031261010a57565b6100fc565b5190565b60209181520190565b90825f9392825e0152565b601f801991011690565b61015061015960209361015e936101478161010f565b93848093610113565b9586910161011c565b610127565b0190565b6101779160208201915f818403910152610131565b90565b346101aa5761018a366004610100565b6101a6610195610776565b61019d6100f2565b91829182610162565b0390f35b6100f8565b60018060a01b031690565b6101c3906101af565b90565b6101cf816101ba565b036101d657565b5f80fd5b905035906101e7826101c6565b565b90565b6101f5816101e9565b036101fc57565b5f80fd5b9050359061020d826101ec565b565b9190604083820312610237578061022b610234925f86016101da565b93602001610200565b90565b6100fc565b151590565b61024a9061023c565b9052565b9190610261905f60208501940190610241565b565b346102945761029061027f61027936600461020f565b90610790565b6102876100f2565b9182918261024e565b0390f35b6100f8565b1c90565b60018060a01b031690565b6102b89060086102bd9302610299565b61029d565b90565b906102cb91546102a8565b90565b6102da60055f906102c0565b90565b6102e6906101ba565b9052565b91906102fd905f602085019401906102dd565b565b3461032f5761030f366004610100565b61032b61031a6102ce565b6103226100f2565b918291826102ea565b0390f35b6100f8565b61033d906101e9565b9052565b9190610354905f60208501940190610334565b565b3461038657610366366004610100565b6103826103716107df565b6103796100f2565b91829182610341565b0390f35b6100f8565b90916060828403126103c0576103bd6103a6845f85016101da565b936103b481602086016101da565b93604001610200565b90565b6100fc565b346103f6576103f26103e16103db36600461038b565b916107f5565b6103e96100f2565b9182918261024e565b0390f35b6100f8565b60ff1690565b61040a906103fb565b9052565b9190610421905f60208501940190610401565b565b3461045357610433366004610100565b61044f61043e61084a565b6104466100f2565b9182918261040e565b0390f35b6100f8565b5f0190565b3461048c5761047661047036600461020f565b90610966565b61047e6100f2565b8061048881610458565b0390f35b6100f8565b906020828203126104aa576104a7915f016101da565b90565b6100fc565b346104df576104db6104ca6104c5366004610491565b6109bc565b6104d26100f2565b91829182610341565b0390f35b6100f8565b34610512576104fc6104f7366004610491565b610aca565b6105046100f2565b8061050e81610458565b0390f35b6100f8565b3461054757610527366004610100565b610543610532610afc565b61053a6100f2565b91829182610162565b0390f35b6100f8565b3461057b5761056561055f36600461020f565b90610b4f565b61056d6100f2565b8061057781610458565b0390f35b6100f8565b346105b1576105ad61059c61059636600461020f565b90610b5b565b6105a46100f2565b9182918261024e565b0390f35b6100f8565b91906040838203126105de57806105d26105db925f86016101da565b936020016101da565b90565b6100fc565b34610614576106106105ff6105f93660046105b6565b90610b93565b6106076100f2565b91829182610341565b0390f35b6100f8565b5f80fd5b606090565b634e487b7160e01b5f52602260045260245ffd5b9060016002830492168015610656575b602083101461065157565b610622565b91607f1691610646565b60209181520190565b5f5260205f2090565b905f929180549061068c61068583610636565b8094610660565b916001811690815f146106e357506001146106a7575b505050565b6106b49192939450610669565b915f925b8184106106cb57505001905f80806106a2565b600181602092959395548486015201910192906106b8565b92949550505060ff19168252151560200201905f80806106a2565b9061070891610672565b90565b634e487b7160e01b5f52604160045260245ffd5b9061072990610127565b810190811067ffffffffffffffff82111761074357604052565b61070b565b90610768610761926107586100f2565b938480926106fe565b038361071f565b565b61077390610748565b90565b61077e61061d565b50610789600361076a565b90565b5f90565b6107ad9161079c61078c565b506107a5610bbf565b919091610bcc565b600190565b5f90565b5f1c90565b90565b6107ca6107cf916107b6565b6107bb565b90565b6107dc90546107be565b90565b6107e76107b2565b506107f260026107d2565b90565b9161081f9261080261078c565b5061081761080e610bbf565b82908491610c1c565b919091610ca8565b600190565b5f90565b90565b90565b61084261083d61084792610828565b61082b565b6103fb565b90565b610852610824565b5061085d601261082e565b90565b61086c610871916107b6565b61029d565b90565b61087e9054610860565b90565b60207f756e6374696f6e00000000000000000000000000000000000000000000000000917f4f6e6c792074686520676174657761792063616e2063616c6c207468697320665f8201520152565b6108db6027604092610113565b6108e481610881565b0190565b6108fd9060208101905f8183039101526108ce565b90565b1561090757565b61090f6100f2565b62461bcd60e51b815280610925600482016108e8565b0390fd5b90610958916109533361094d6109476109426005610874565b6101ba565b916101ba565b14610900565b61095a565b565b9061096491610d45565b565b9061097091610929565b565b61098661098161098b926101af565b61082b565b6101af565b90565b61099790610972565b90565b6109a39061098e565b90565b906109b09061099a565b5f5260205260405f2090565b6109d26109d7916109cb6107b2565b505f6109a6565b6107d2565b90565b90565b6109f16109ec6109f6926109da565b61082b565b6101af565b90565b610a02906109dd565b90565b5f7f496e76616c696420676174657761792061646472657373000000000000000000910152565b610a396017602092610113565b610a4281610a05565b0190565b610a5b9060208101905f818303910152610a2c565b90565b15610a6557565b610a6d6100f2565b62461bcd60e51b815280610a8360048201610a46565b0390fd5b5f1b90565b90610a9d60018060a01b0391610a87565b9181191691161790565b90565b90610abf610aba610ac69261099a565b610aa7565b8254610a8c565b9055565b610afa90610af381610aec610ae6610ae15f6109f9565b6101ba565b916101ba565b1415610a5e565b6005610aaa565b565b610b0461061d565b50610b0f600461076a565b90565b90610b4191610b3c33610b36610b30610b2b6005610874565b6101ba565b916101ba565b14610900565b610b43565b565b90610b4d91610da3565b565b90610b5991610b12565b565b610b7891610b6761078c565b50610b70610bbf565b919091610ca8565b600190565b90610b879061099a565b5f5260205260405f2090565b610bb891610bae610bb392610ba66107b2565b506001610b7d565b6109a6565b6107d2565b90565b5f90565b610bc7610bbb565b503390565b91610bda9291600192610e57565b565b604090610c05610c0c9496959396610bfb60608401985f8501906102dd565b6020830190610334565b0190610334565b565b90610c1991036101e9565b90565b929192610c2a818390610b93565b9081610c3f610c395f196101e9565b916101e9565b10610c4c575b5050509050565b81610c5f610c59876101e9565b916101e9565b10610c8557610c7c9394610c74919392610c0e565b905f92610e57565b805f8080610c45565b50610ca4849291925f938493637dc7a0d960e11b855260048501610bdc565b0390fd5b9182610cc4610cbe610cb95f6109f9565b6101ba565b916101ba565b14610d1e5781610ce4610cde610cd95f6109f9565b6101ba565b916101ba565b14610cf757610cf592919091610fad565b565b610d1a610d035f6109f9565b5f91829163ec442f0560e01b8352600483016102ea565b0390fd5b610d41610d2a5f6109f9565b5f918291634b637e8f60e11b8352600483016102ea565b0390fd5b80610d60610d5a610d555f6109f9565b6101ba565b916101ba565b14610d7c57610d7a91610d725f6109f9565b919091610fad565b565b610d9f610d885f6109f9565b5f91829163ec442f0560e01b8352600483016102ea565b0390fd5b9081610dbf610db9610db45f6109f9565b6101ba565b916101ba565b14610ddb57610dd99190610dd25f6109f9565b9091610fad565b565b610dfe610de75f6109f9565b5f918291634b637e8f60e11b8352600483016102ea565b0390fd5b90610e0e5f1991610a87565b9181191691161790565b610e2c610e27610e31926101e9565b61082b565b6101e9565b90565b90565b90610e4c610e47610e5392610e18565b610e34565b8254610e02565b9055565b909281610e74610e6e610e695f6109f9565b6101ba565b916101ba565b14610f3f5783610e94610e8e610e895f6109f9565b6101ba565b916101ba565b14610f1857610eb883610eb3610eac60018690610b7d565b87906109a6565b610e37565b610ec2575b505050565b919091610f0d610efb610ef57f8c5be1e5ebec7d5bd14f71427d1e84f3dd0314c0f7b2291e5b200ac8c7c3b9259361099a565b9361099a565b93610f046100f2565b91829182610341565b0390a35f8080610ebd565b610f3b610f245f6109f9565b5f918291634a1406b160e11b8352600483016102ea565b0390fd5b610f62610f4b5f6109f9565b5f91829163e602df0560e01b8352600483016102ea565b0390fd5b634e487b7160e01b5f52601160045260245ffd5b610f89610f8f919392936101e9565b926101e9565b8201809211610f9a57565b610f66565b90610faa91016101e9565b90565b91909180610fcb610fc5610fc05f6109f9565b6101ba565b916101ba565b145f146110ac57610fef610fe883610fe360026107d2565b610f7a565b6002610e37565b5b8261100b6110056110005f6109f9565b6101ba565b916101ba565b145f146110805761102f6110288361102360026107d2565b610c0e565b6002610e37565b5b91909161107b6110696110637fddf252ad1be2c89b69c2b068fc378daa952ba7f163c4a11628f55a4df523b3ef9361099a565b9361099a565b936110726100f2565b91829182610341565b0390a3565b6110a7826110a16110925f87906109a6565b9161109c836107d2565b610f9f565b90610e37565b611030565b6110bf6110ba5f83906109a6565b6107d2565b806110d26110cc856101e9565b916101e9565b106110fa576110e56110f5918490610c0e565b6110f05f84906109a6565b610e37565b610ff0565b906111189091925f93849363391434e360e21b855260048501610bdc565b0390fdfea26469706673582212208bcf4562e160f5f5622e0694f2aa8ce6a245edaa8c011a5227c000d0347f4c8564736f6c63430008210033","linkReferences":{}},"methodIdentifiers":{"allowance(address,address)":"dd62ed3e","approve(address,uint256)":"095ea7b3","balanceOf(address)":"70a08231","burn(address,uint256)":"9dc29fac","decimals()":"313ce567","gateway()":"116191b6","mint(address,uint256)":"40c10f19","name()":"06fdde03","setGateway(address)":"90646b4a","symbol()":"95d89b41","totalSupply()":"18160ddd","transfer(address,uint256)":"a9059cbb","transferFrom(address,address,uint256)":"23b872dd"},"id":30}