{
    "abi": [
        {
            "type": "constructor",
            "inputs": [
                {
                    "name": "_escrowAddress",
                    "type": "address",
                    "internalType": "address"
                },
                {
                    "name": "_coordinator",
                    "type": "address",
                    "internalType": "address"
                },
                {
                    "name": "_token",
                    "type": "address",
                    "internalType": "address"
                },
                {
                    "name": "_vaultAddress",
                    "type": "address",
                    "internalType": "address"
                }
            ],
            "stateMutability": "nonpayable"
        },
        {
            "type": "function",
            "name": "INITIAL_REPUTATION",
            "inputs": [],
            "outputs": [
                {
                    "name": "",
                    "type": "uint256",
                    "internalType": "uint256"
                }
            ],
            "stateMutability": "view"
        },
        {
            "type": "function",
            "name": "MAX_BID",
            "inputs": [],
            "outputs": [
                {
                    "name": "",
                    "type": "uint256",
                    "internalType": "uint256"
                }
            ],
            "stateMutability": "view"
        },
        {
            "type": "function",
            "name": "MAX_REPUTATION",
            "inputs": [],
            "outputs": [
                {
                    "name": "",
                    "type": "uint256",
                    "internalType": "uint256"
                }
            ],
            "stateMutability": "view"
        },
        {
            "type": "function",
            "name": "REP_PENALTY",
            "inputs": [],
            "outputs": [
                {
                    "name": "",
                    "type": "uint256",
                    "internalType": "uint256"
                }
            ],
            "stateMutability": "view"
        },
        {
            "type": "function",
            "name": "REP_REWARD",
            "inputs": [],
            "outputs": [
                {
                    "name": "",
                    "type": "uint256",
                    "internalType": "uint256"
                }
            ],
            "stateMutability": "view"
        },
        {
            "type": "function",
            "name": "coordinator",
            "inputs": [],
            "outputs": [
                {
                    "name": "",
                    "type": "address",
                    "internalType": "address"
                }
            ],
            "stateMutability": "view"
        },
        {
            "type": "function",
            "name": "createJob",
            "inputs": [
                {
                    "name": "_params",
                    "type": "tuple",
                    "internalType": "struct EntryPoint.CreateJobParams",
                    "components": [
                        {
                            "name": "jobId",
                            "type": "string",
                            "internalType": "string"
                        },
                        {
                            "name": "creator",
                            "type": "address",
                            "internalType": "address"
                        },
                        {
                            "name": "maxTokenAmount",
                            "type": "uint256",
                            "internalType": "uint256"
                        },
                        {
                            "name": "deadline",
                            "type": "uint256",
                            "internalType": "uint256"
                        },
                        {
                            "name": "createdAt",
                            "type": "uint256",
                            "internalType": "uint256"
                        },
                        {
                            "name": "priority",
                            "type": "uint8",
                            "internalType": "enum EntryPoint.JobPriority"
                        },
                        {
                            "name": "quality",
                            "type": "uint8",
                            "internalType": "enum EntryPoint.JobQuality"
                        },
                        {
                            "name": "minReputation",
                            "type": "uint256",
                            "internalType": "uint256"
                        }
                    ]
                }
            ],
            "outputs": [],
            "stateMutability": "nonpayable"
        },
        {
            "type": "function",
            "name": "deployer",
            "inputs": [],
            "outputs": [
                {
                    "name": "",
                    "type": "address",
                    "internalType": "address"
                }
            ],
            "stateMutability": "view"
        },
        {
            "type": "function",
            "name": "escrow",
            "inputs": [],
            "outputs": [
                {
                    "name": "",
                    "type": "address",
                    "internalType": "contract IEscrow"
                }
            ],
            "stateMutability": "view"
        },
        {
            "type": "function",
            "name": "finalizeJob",
            "inputs": [
                {
                    "name": "_jobId",
                    "type": "string",
                    "internalType": "string"
                }
            ],
            "outputs": [],
            "stateMutability": "nonpayable"
        },
        {
            "type": "function",
            "name": "getBidCountForJob",
            "inputs": [
                {
                    "name": "_jobId",
                    "type": "string",
                    "internalType": "string"
                }
            ],
            "outputs": [
                {
                    "name": "",
                    "type": "uint256",
                    "internalType": "uint256"
                }
            ],
            "stateMutability": "view"
        },
        {
            "type": "function",
            "name": "getBidDetails",
            "inputs": [
                {
                    "name": "_jobId",
                    "type": "string",
                    "internalType": "string"
                },
                {
                    "name": "_bidId",
                    "type": "string",
                    "internalType": "string"
                }
            ],
            "outputs": [
                {
                    "name": "",
                    "type": "string",
                    "internalType": "string"
                },
                {
                    "name": "",
                    "type": "string",
                    "internalType": "string"
                },
                {
                    "name": "",
                    "type": "address",
                    "internalType": "address"
                },
                {
                    "name": "",
                    "type": "uint256",
                    "internalType": "uint256"
                },
                {
                    "name": "",
                    "type": "uint256",
                    "internalType": "uint256"
                },
                {
                    "name": "",
                    "type": "uint256",
                    "internalType": "uint256"
                },
                {
                    "name": "",
                    "type": "uint256",
                    "internalType": "uint256"
                },
                {
                    "name": "",
                    "type": "uint8",
                    "internalType": "enum EntryPoint.BidStatus"
                }
            ],
            "stateMutability": "view"
        },
        {
            "type": "function",
            "name": "getBidsForJob",
            "inputs": [
                {
                    "name": "_jobId",
                    "type": "string",
                    "internalType": "string"
                }
            ],
            "outputs": [
                {
                    "name": "",
                    "type": "tuple[]",
                    "internalType": "struct EntryPoint.Bid[]",
                    "components": [
                        {
                            "name": "bidId",
                            "type": "string",
                            "internalType": "string"
                        },
                        {
                            "name": "jobId",
                            "type": "string",
                            "internalType": "string"
                        },
                        {
                            "name": "bidder",
                            "type": "address",
                            "internalType": "address"
                        },
                        {
                            "name": "createdAt",
                            "type": "uint256",
                            "internalType": "uint256"
                        },
                        {
                            "name": "tokenAmount",
                            "type": "uint256",
                            "internalType": "uint256"
                        },
                        {
                            "name": "timeToComplete",
                            "type": "uint256",
                            "internalType": "uint256"
                        },
                        {
                            "name": "reputationScore",
                            "type": "uint256",
                            "internalType": "uint256"
                        },
                        {
                            "name": "status",
                            "type": "uint8",
                            "internalType": "enum EntryPoint.BidStatus"
                        },
                        {
                            "name": "exists",
                            "type": "bool",
                            "internalType": "bool"
                        }
                    ]
                }
            ],
            "stateMutability": "view"
        },
        {
            "type": "function",
            "name": "getEscrowDetails",
            "inputs": [
                {
                    "name": "_jobId",
                    "type": "string",
                    "internalType": "string"
                }
            ],
            "outputs": [
                {
                    "name": "",
                    "type": "string",
                    "internalType": "string"
                },
                {
                    "name": "",
                    "type": "string",
                    "internalType": "string"
                },
                {
                    "name": "",
                    "type": "address",
                    "internalType": "address"
                },
                {
                    "name": "",
                    "type": "address",
                    "internalType": "address"
                },
                {
                    "name": "",
                    "type": "uint256",
                    "internalType": "uint256"
                },
                {
                    "name": "",
                    "type": "bool",
                    "internalType": "bool"
                }
            ],
            "stateMutability": "view"
        },
        {
            "type": "function",
            "name": "getJobAssignee",
            "inputs": [
                {
                    "name": "_jobId",
                    "type": "string",
                    "internalType": "string"
                }
            ],
            "outputs": [
                {
                    "name": "",
                    "type": "address",
                    "internalType": "address"
                }
            ],
            "stateMutability": "view"
        },
        {
            "type": "function",
            "name": "getJobDetails",
            "inputs": [
                {
                    "name": "_jobId",
                    "type": "string",
                    "internalType": "string"
                }
            ],
            "outputs": [
                {
                    "name": "",
                    "type": "string",
                    "internalType": "string"
                },
                {
                    "name": "",
                    "type": "address",
                    "internalType": "address"
                },
                {
                    "name": "",
                    "type": "uint256",
                    "internalType": "uint256"
                },
                {
                    "name": "",
                    "type": "uint256",
                    "internalType": "uint256"
                },
                {
                    "name": "",
                    "type": "uint256",
                    "internalType": "uint256"
                },
                {
                    "name": "",
                    "type": "uint8",
                    "internalType": "enum EntryPoint.JobPriority"
                },
                {
                    "name": "",
                    "type": "uint8",
                    "internalType": "enum EntryPoint.JobQuality"
                },
                {
                    "name": "",
                    "type": "uint256",
                    "internalType": "uint256"
                },
                {
                    "name": "",
                    "type": "uint8",
                    "internalType": "enum EntryPoint.JobStatus"
                },
                {
                    "name": "",
                    "type": "tuple",
                    "internalType": "struct EntryPoint.Bid",
                    "components": [
                        {
                            "name": "bidId",
                            "type": "string",
                            "internalType": "string"
                        },
                        {
                            "name": "jobId",
                            "type": "string",
                            "internalType": "string"
                        },
                        {
                            "name": "bidder",
                            "type": "address",
                            "internalType": "address"
                        },
                        {
                            "name": "createdAt",
                            "type": "uint256",
                            "internalType": "uint256"
                        },
                        {
                            "name": "tokenAmount",
                            "type": "uint256",
                            "internalType": "uint256"
                        },
                        {
                            "name": "timeToComplete",
                            "type": "uint256",
                            "internalType": "uint256"
                        },
                        {
                            "name": "reputationScore",
                            "type": "uint256",
                            "internalType": "uint256"
                        },
                        {
                            "name": "status",
                            "type": "uint8",
                            "internalType": "enum EntryPoint.BidStatus"
                        },
                        {
                            "name": "exists",
                            "type": "bool",
                            "internalType": "bool"
                        }
                    ]
                },
                {
                    "name": "",
                    "type": "uint256",
                    "internalType": "uint256"
                },
                {
                    "name": "",
                    "type": "uint256",
                    "internalType": "uint256"
                }
            ],
            "stateMutability": "view"
        },
        {
            "type": "function",
            "name": "getJobsByNode",
            "inputs": [
                {
                    "name": "node",
                    "type": "address",
                    "internalType": "address"
                }
            ],
            "outputs": [
                {
                    "name": "",
                    "type": "bytes32[]",
                    "internalType": "bytes32[]"
                }
            ],
            "stateMutability": "view"
        },
        {
            "type": "function",
            "name": "getNodeReputation",
            "inputs": [
                {
                    "name": "node",
                    "type": "address",
                    "internalType": "address"
                }
            ],
            "outputs": [
                {
                    "name": "",
                    "type": "uint256",
                    "internalType": "uint256"
                }
            ],
            "stateMutability": "view"
        },
        {
            "type": "function",
            "name": "isJobExpired",
            "inputs": [
                {
                    "name": "_jobId",
                    "type": "string",
                    "internalType": "string"
                }
            ],
            "outputs": [
                {
                    "name": "",
                    "type": "bool",
                    "internalType": "bool"
                }
            ],
            "stateMutability": "view"
        },
        {
            "type": "function",
            "name": "isMaxBidReached",
            "inputs": [
                {
                    "name": "_jobId",
                    "type": "string",
                    "internalType": "string"
                }
            ],
            "outputs": [
                {
                    "name": "",
                    "type": "bool",
                    "internalType": "bool"
                }
            ],
            "stateMutability": "view"
        },
        {
            "type": "function",
            "name": "jobBidIndexPlusOne",
            "inputs": [
                {
                    "name": "",
                    "type": "bytes32",
                    "internalType": "bytes32"
                },
                {
                    "name": "",
                    "type": "bytes32",
                    "internalType": "bytes32"
                }
            ],
            "outputs": [
                {
                    "name": "",
                    "type": "uint256",
                    "internalType": "uint256"
                }
            ],
            "stateMutability": "view"
        },
        {
            "type": "function",
            "name": "jobBids",
            "inputs": [
                {
                    "name": "",
                    "type": "bytes32",
                    "internalType": "bytes32"
                },
                {
                    "name": "",
                    "type": "uint256",
                    "internalType": "uint256"
                }
            ],
            "outputs": [
                {
                    "name": "bidId",
                    "type": "string",
                    "internalType": "string"
                },
                {
                    "name": "jobId",
                    "type": "string",
                    "internalType": "string"
                },
                {
                    "name": "bidder",
                    "type": "address",
                    "internalType": "address"
                },
                {
                    "name": "createdAt",
                    "type": "uint256",
                    "internalType": "uint256"
                },
                {
                    "name": "tokenAmount",
                    "type": "uint256",
                    "internalType": "uint256"
                },
                {
                    "name": "timeToComplete",
                    "type": "uint256",
                    "internalType": "uint256"
                },
                {
                    "name": "reputationScore",
                    "type": "uint256",
                    "internalType": "uint256"
                },
                {
                    "name": "status",
                    "type": "uint8",
                    "internalType": "enum EntryPoint.BidStatus"
                },
                {
                    "name": "exists",
                    "type": "bool",
                    "internalType": "bool"
                }
            ],
            "stateMutability": "view"
        },
        {
            "type": "function",
            "name": "jobToAssignee",
            "inputs": [
                {
                    "name": "",
                    "type": "bytes32",
                    "internalType": "bytes32"
                }
            ],
            "outputs": [
                {
                    "name": "",
                    "type": "address",
                    "internalType": "address"
                }
            ],
            "stateMutability": "view"
        },
        {
            "type": "function",
            "name": "jobs",
            "inputs": [
                {
                    "name": "",
                    "type": "bytes32",
                    "internalType": "bytes32"
                }
            ],
            "outputs": [
                {
                    "name": "jobId",
                    "type": "string",
                    "internalType": "string"
                },
                {
                    "name": "creator",
                    "type": "address",
                    "internalType": "address"
                },
                {
                    "name": "createdAt",
                    "type": "uint256",
                    "internalType": "uint256"
                },
                {
                    "name": "deadline",
                    "type": "uint256",
                    "internalType": "uint256"
                },
                {
                    "name": "maxTokenAmount",
                    "type": "uint256",
                    "internalType": "uint256"
                },
                {
                    "name": "priority",
                    "type": "uint8",
                    "internalType": "enum EntryPoint.JobPriority"
                },
                {
                    "name": "quality",
                    "type": "uint8",
                    "internalType": "enum EntryPoint.JobQuality"
                },
                {
                    "name": "minReputation",
                    "type": "uint256",
                    "internalType": "uint256"
                },
                {
                    "name": "bestBid",
                    "type": "tuple",
                    "internalType": "struct EntryPoint.Bid",
                    "components": [
                        {
                            "name": "bidId",
                            "type": "string",
                            "internalType": "string"
                        },
                        {
                            "name": "jobId",
                            "type": "string",
                            "internalType": "string"
                        },
                        {
                            "name": "bidder",
                            "type": "address",
                            "internalType": "address"
                        },
                        {
                            "name": "createdAt",
                            "type": "uint256",
                            "internalType": "uint256"
                        },
                        {
                            "name": "tokenAmount",
                            "type": "uint256",
                            "internalType": "uint256"
                        },
                        {
                            "name": "timeToComplete",
                            "type": "uint256",
                            "internalType": "uint256"
                        },
                        {
                            "name": "reputationScore",
                            "type": "uint256",
                            "internalType": "uint256"
                        },
                        {
                            "name": "status",
                            "type": "uint8",
                            "internalType": "enum EntryPoint.BidStatus"
                        },
                        {
                            "name": "exists",
                            "type": "bool",
                            "internalType": "bool"
                        }
                    ]
                },
                {
                    "name": "bestBidScore",
                    "type": "uint256",
                    "internalType": "uint256"
                },
                {
                    "name": "bidCount",
                    "type": "uint256",
                    "internalType": "uint256"
                },
                {
                    "name": "status",
                    "type": "uint8",
                    "internalType": "enum EntryPoint.JobStatus"
                },
                {
                    "name": "exists",
                    "type": "bool",
                    "internalType": "bool"
                }
            ],
            "stateMutability": "view"
        },
        {
            "type": "function",
            "name": "markJobAsCompleted",
            "inputs": [
                {
                    "name": "_jobId",
                    "type": "string",
                    "internalType": "string"
                }
            ],
            "outputs": [],
            "stateMutability": "nonpayable"
        },
        {
            "type": "function",
            "name": "markJobAsFailed",
            "inputs": [
                {
                    "name": "_jobId",
                    "type": "string",
                    "internalType": "string"
                }
            ],
            "outputs": [],
            "stateMutability": "nonpayable"
        },
        {
            "type": "function",
            "name": "nodeToJobs",
            "inputs": [
                {
                    "name": "",
                    "type": "address",
                    "internalType": "address"
                },
                {
                    "name": "",
                    "type": "uint256",
                    "internalType": "uint256"
                }
            ],
            "outputs": [
                {
                    "name": "",
                    "type": "bytes32",
                    "internalType": "bytes32"
                }
            ],
            "stateMutability": "view"
        },
        {
            "type": "function",
            "name": "placeBid",
            "inputs": [
                {
                    "name": "_bidId",
                    "type": "string",
                    "internalType": "string"
                },
                {
                    "name": "_tokenAmount",
                    "type": "uint256",
                    "internalType": "uint256"
                },
                {
                    "name": "_jobId",
                    "type": "string",
                    "internalType": "string"
                },
                {
                    "name": "_createdAt",
                    "type": "uint256",
                    "internalType": "uint256"
                },
                {
                    "name": "_timeToComplete",
                    "type": "uint256",
                    "internalType": "uint256"
                }
            ],
            "outputs": [],
            "stateMutability": "nonpayable"
        },
        {
            "type": "function",
            "name": "refundEscrow",
            "inputs": [
                {
                    "name": "_jobId",
                    "type": "string",
                    "internalType": "string"
                }
            ],
            "outputs": [],
            "stateMutability": "nonpayable"
        },
        {
            "type": "function",
            "name": "releaseEscrowFunds",
            "inputs": [
                {
                    "name": "_jobId",
                    "type": "string",
                    "internalType": "string"
                }
            ],
            "outputs": [],
            "stateMutability": "nonpayable"
        },
        {
            "type": "function",
            "name": "reputation",
            "inputs": [
                {
                    "name": "",
                    "type": "address",
                    "internalType": "address"
                }
            ],
            "outputs": [
                {
                    "name": "",
                    "type": "uint256",
                    "internalType": "uint256"
                }
            ],
            "stateMutability": "view"
        },
        {
            "type": "function",
            "name": "token",
            "inputs": [],
            "outputs": [
                {
                    "name": "",
                    "type": "address",
                    "internalType": "contract IERC20"
                }
            ],
            "stateMutability": "view"
        },
        {
            "type": "function",
            "name": "vault",
            "inputs": [],
            "outputs": [
                {
                    "name": "",
                    "type": "address",
                    "internalType": "contract IVault"
                }
            ],
            "stateMutability": "view"
        },
        {
            "type": "event",
            "name": "BidPlaced",
            "inputs": [
                {
                    "name": "bidId",
                    "type": "string",
                    "indexed": false,
                    "internalType": "string"
                },
                {
                    "name": "jobId",
                    "type": "string",
                    "indexed": false,
                    "internalType": "string"
                },
                {
                    "name": "bidder",
                    "type": "address",
                    "indexed": false,
                    "internalType": "address"
                },
                {
                    "name": "tokenAmount",
                    "type": "uint256",
                    "indexed": false,
                    "internalType": "uint256"
                }
            ],
            "anonymous": false
        },
        {
            "type": "event",
            "name": "EscrowCreated",
            "inputs": [
                {
                    "name": "jobId",
                    "type": "string",
                    "indexed": false,
                    "internalType": "string"
                },
                {
                    "name": "bidId",
                    "type": "string",
                    "indexed": false,
                    "internalType": "string"
                },
                {
                    "name": "payer",
                    "type": "address",
                    "indexed": false,
                    "internalType": "address"
                },
                {
                    "name": "payee",
                    "type": "address",
                    "indexed": false,
                    "internalType": "address"
                },
                {
                    "name": "amount",
                    "type": "uint256",
                    "indexed": false,
                    "internalType": "uint256"
                }
            ],
            "anonymous": false
        },
        {
            "type": "event",
            "name": "EscrowRefund",
            "inputs": [
                {
                    "name": "jobId",
                    "type": "string",
                    "indexed": false,
                    "internalType": "string"
                }
            ],
            "anonymous": false
        },
        {
            "type": "event",
            "name": "EscrowReleased",
            "inputs": [
                {
                    "name": "jobId",
                    "type": "string",
                    "indexed": false,
                    "internalType": "string"
                },
                {
                    "name": "amount",
                    "type": "uint256",
                    "indexed": false,
                    "internalType": "uint256"
                }
            ],
            "anonymous": false
        },
        {
            "type": "event",
            "name": "JobAssigned",
            "inputs": [
                {
                    "name": "jobId",
                    "type": "string",
                    "indexed": false,
                    "internalType": "string"
                },
                {
                    "name": "node",
                    "type": "address",
                    "indexed": false,
                    "internalType": "address"
                }
            ],
            "anonymous": false
        },
        {
            "type": "event",
            "name": "JobCreated",
            "inputs": [
                {
                    "name": "jobId",
                    "type": "string",
                    "indexed": false,
                    "internalType": "string"
                },
                {
                    "name": "creator",
                    "type": "address",
                    "indexed": false,
                    "internalType": "address"
                },
                {
                    "name": "maxTokenAmount",
                    "type": "uint256",
                    "indexed": false,
                    "internalType": "uint256"
                },
                {
                    "name": "deadline",
                    "type": "uint256",
                    "indexed": false,
                    "internalType": "uint256"
                }
            ],
            "anonymous": false
        },
        {
            "type": "event",
            "name": "JobFailed",
            "inputs": [
                {
                    "name": "jobId",
                    "type": "string",
                    "indexed": false,
                    "internalType": "string"
                }
            ],
            "anonymous": false
        }
    ],
    "bytecode": {
        "object": "0x6080604052346100335761001d610014610120565b92919091610293565b610025610038565b6150f26102e582396150f290f35b61003e565b60405190565b5f80fd5b601f801991011690565b634e487b7160e01b5f52604160045260245ffd5b9061006a90610042565b810190811060018060401b0382111761008257604052565b61004c565b9061009a610093610038565b9283610060565b565b5f80fd5b60018060a01b031690565b6100b4906100a0565b90565b6100c0816100ab565b036100c757565b5f80fd5b905051906100d8826100b7565b565b60808183031261011b576100f0825f83016100cb565b9261011861010184602085016100cb565b9361010f81604086016100cb565b936060016100cb565b90565b61009c565b61013e6153d78038038061013381610087565b9283398101906100da565b90919293565b90565b61015b610156610160926100a0565b610144565b6100a0565b90565b61016c90610147565b90565b61017890610163565b90565b5f1b90565b9061019160018060a01b039161017b565b9181191691161790565b6101a490610163565b90565b90565b906101bf6101ba6101c69261019b565b6101a7565b8254610180565b9055565b6101d390610147565b90565b6101df906101ca565b90565b90565b906101fa6101f5610201926101d6565b6101e2565b8254610180565b9055565b61020e90610147565b90565b61021a90610205565b90565b61022690610205565b90565b90565b9061024161023c6102489261021d565b610229565b8254610180565b9055565b61025590610147565b90565b6102619061024c565b90565b61026d9061024c565b90565b90565b9061028861028361028f92610264565b610270565b8254610180565b9055565b6102c46102d0936102bf6102d796946102b86102b16102cb9661016f565b60096101aa565b60066101e5565b610211565b600861022c565b610258565b600a610273565b6102e23360076101e5565b56fe60806040526004361015610013575b611f07565b61001d5f3561022c565b80630a009097146102275780630c9c825c146102225780632386ed921461021d5780633198e4ee14610218578063373c29401461021357806338ed7cfc1461020e5780634d91e1f7146102095780635159c3c414610204578063545e1735146101ff5780635dc34d6f146101fa5780635fd2f400146101f5578063702e1fc1146101f05780637883bbc9146101eb5780637a1bc1b3146101e65780637b057258146101e15780637b141f2e146101dc5780637e466d20146101d757806392427c99146101d2578063a3ad238f146101cd578063b002058b146101c8578063b9f79451146101c3578063c81e7f3a146101be578063d213c0f2146101b9578063d49e05fa146101b4578063d52ad0d8146101af578063d5f39488146101aa578063dc906182146101a5578063ddb73d0d146101a0578063e2fdcc171461019b578063e90ca74714610196578063fbfa77cf14610191578063fc0c546a1461018c5763ff5e58000361000e57611ed2565b611e9d565b611dfa565b611d47565b611c54565b611bb0565b611a7c565b6119e4565b6119a0565b611956565b611909565b611892565b61177e565b6116e6565b611677565b61147c565b6113a9565b611374565b611308565b61129c565b6111c6565b61110b565b6110ba565b611085565b611050565b610ec8565b610e93565b610e14565b61066d565b610638565b6105e3565b61057b565b6102cc565b60e01c90565b60405190565b5f80fd5b5f80fd5b5f91031261024a57565b61023c565b1c90565b60018060a01b031690565b61026e906008610273930261024f565b610253565b90565b90610281915461025e565b90565b61029060065f90610276565b90565b60018060a01b031690565b6102a790610293565b90565b6102b39061029e565b9052565b91906102ca905f602085019401906102aa565b565b346102fc576102dc366004610240565b6102f86102e7610284565b6102ef610232565b918291826102b7565b0390f35b610238565b5f80fd5b5f80fd5b601f801991011690565b634e487b7160e01b5f52604160045260245ffd5b9061033190610309565b810190811067ffffffffffffffff82111761034b57604052565b610313565b9061036361035c610232565b9283610327565b565b5f80fd5b5f80fd5b5f80fd5b67ffffffffffffffff811161038f5761038b602091610309565b0190565b610313565b90825f939282370152565b909291926103b46103af82610371565b610350565b938185526020850190828401116103d0576103ce92610394565b565b61036d565b9080601f830112156103f3578160206103f09335910161039f565b90565b610369565b6104018161029e565b0361040857565b5f80fd5b90503590610419826103f8565b565b90565b6104278161041b565b0361042e57565b5f80fd5b9050359061043f8261041e565b565b6003111561044b57565b5f80fd5b9050359061045c82610441565b565b6003111561046857565b5f80fd5b905035906104798261045e565b565b9190916101008184031261053c57610494610100610350565b925f8201359167ffffffffffffffff8311610537576104b8826105309483016103d5565b5f8601526104c9826020830161040c565b60208601526104db8260408301610432565b60408601526104ed8260608301610432565b60608601526104ff8260808301610432565b60808601526105118260a0830161044f565b60a08601526105238260c0830161046c565b60c086015260e001610432565b60e0830152565b610365565b610305565b90602082820312610571575f82013567ffffffffffffffff811161056c57610569920161047b565b90565b610301565b61023c565b5f0190565b346105a95761059361058e366004610541565b612c1b565b61059b610232565b806105a581610576565b0390f35b610238565b906020828203126105de575f82013567ffffffffffffffff81116105d9576105d692016103d5565b90565b610301565b61023c565b34610611576105fb6105f63660046105ae565b612e13565b610603610232565b8061060d81610576565b0390f35b610238565b61061f9061041b565b9052565b9190610636905f60208501940190610616565b565b346106685761066461065361064e3660046105ae565b612ea0565b61065b610232565b91829182610623565b0390f35b610238565b3461069b576106856106803660046105ae565b613091565b61068d610232565b8061069781610576565b0390f35b610238565b90565b6106ac816106a0565b036106b357565b5f80fd5b905035906106c4826106a3565b565b906020828203126106df576106dc915f016106b7565b90565b61023c565b6106ed906106a0565b90565b906106fa906106e4565b5f5260205260405f2090565b634e487b7160e01b5f52602260045260245ffd5b906001600283049216801561073a575b602083101461073557565b610706565b91607f169161072a565b60209181520190565b5f5260205f2090565b905f92918054906107706107698361071a565b8094610744565b916001811690815f146107c7575060011461078b575b505050565b610798919293945061074d565b915f925b8184106107af57505001905f8080610786565b6001816020929593955484860152019101929061079c565b92949550505060ff19168252151560200201905f8080610786565b906107ec91610756565b90565b9061080f610808926107ff610232565b938480926107e2565b0383610327565b565b5f1c90565b61082261082791610811565b610253565b90565b6108349054610816565b90565b90565b61084661084b91610811565b610837565b90565b610858905461083a565b90565b60ff1690565b61086d61087291610811565b61085b565b90565b61087f9054610861565b90565b60081c90565b60ff1690565b61089a61089f91610882565b610888565b90565b6108ac905461088e565b90565b52565b906108bc9061029e565b9052565b906108ca9061041b565b9052565b60ff1690565b6108e06108e591610811565b6108ce565b90565b6108f290546108d4565b90565b634e487b7160e01b5f52602160045260245ffd5b6003111561091357565b6108f5565b9061092282610909565b565b9061092e90610918565b9052565b60ff1690565b61094461094991610882565b610932565b90565b6109569054610938565b90565b151590565b9061096890610959565b9052565b610977610120610350565b90565b90610a59610a4f600761098b61096c565b946109a261099a5f83016107ef565b5f88016108af565b6109ba6109b1600183016107ef565b602088016108af565b6109d26109c96002830161082a565b604088016108b2565b6109ea6109e16003830161084e565b606088016108c0565b610a026109f96004830161084e565b608088016108c0565b610a1a610a116005830161084e565b60a088016108c0565b610a32610a296006830161084e565b60c088016108c0565b610a49610a408383016108e8565b60e08801610924565b0161094c565b610100840161095e565b565b60ff1690565b610a6d610a7291610811565b610a5b565b90565b610a7f9054610a61565b90565b610a8c905f6106f0565b610a975f82016107ef565b91610aa46001830161082a565b91610ab16002820161084e565b91610abe6003830161084e565b91610acb6004820161084e565b91610ad860058301610875565b91610ae5600582016108a2565b91610af26006830161084e565b91610aff6007820161097a565b91610b0c600f830161084e565b91610b196010820161084e565b91610b316011610b2a818501610a75565b930161094c565b90565b5190565b60209181520190565b90825f9392825e0152565b610b6b610b74602093610b7993610b6281610b34565b93848093610b38565b95869101610b41565b610309565b0190565b60031115610b8757565b6108f5565b90610b9682610b7d565b565b610ba190610b8c565b90565b610bad90610b98565b9052565b60031115610bbb57565b6108f5565b90610bca82610bb1565b565b610bd590610bc0565b90565b610be190610bcc565b9052565b610c04610c0d602093610c1293610bfb81610b34565b93848093610744565b95869101610b41565b610309565b0190565b610c1f9061029e565b9052565b610c2c9061041b565b9052565b610c3990610918565b90565b610c4590610c30565b9052565b610c5290610959565b9052565b90610d039061010080610c8c610c7a61012085015f8801518682035f880152610be5565b60208701518582036020870152610be5565b94610c9f60408201516040860190610c16565b610cb160608201516060860190610c23565b610cc360808201516080860190610c23565b610cd560a082015160a0860190610c23565b610ce760c082015160c0860190610c23565b610cf960e082015160e0860190610c3c565b0151910190610c49565b90565b60041115610d1057565b6108f5565b90610d1f82610d06565b565b610d2a90610d15565b90565b610d3690610d21565b9052565b610d4390610959565b9052565b9a9897959391969492909d9c9b999d6101a08c018c808203905f0152610d6c91610b4c565b9660208c01610d7a916102aa565b60408b01610d8791610616565b60608a01610d9491610616565b60808901610da191610616565b60a08801610dae91610ba4565b60c08701610dbb91610bd8565b60e08601610dc891610616565b848103610100860152610dda91610c56565b956101208401610de991610616565b6101408301610df791610616565b6101608201610e0591610d2d565b61018001610e1291610d3a565b565b34610e5457610e50610e2f610e2a3660046106c6565b610a82565b99610e479d9b9d999199989298979397969496610232565b9d8e9d8e610d47565b0390f35b610238565b90565b90565b610e73610e6e610e7892610e59565b610e5c565b61041b565b90565b610e856005610e5f565b90565b610e90610e7b565b90565b34610ec357610ea3366004610240565b610ebf610eae610e88565b610eb6610232565b91829182610623565b0390f35b610238565b34610ef657610ee0610edb3660046105ae565b61325f565b610ee8610232565b80610ef281610576565b0390f35b610238565b5190565b60209181520190565b60200190565b90610fbb9061010080610f44610f3261012085015f8801518682035f880152610be5565b60208701518582036020870152610be5565b94610f5760408201516040860190610c16565b610f6960608201516060860190610c23565b610f7b60808201516080860190610c23565b610f8d60a082015160a0860190610c23565b610f9f60c082015160c0860190610c23565b610fb160e082015160e0860190610c3c565b0151910190610c49565b90565b90610fc891610f0e565b90565b60200190565b90610fe5610fde83610efb565b8092610eff565b9081610ff660208302840194610f08565b925f915b83831061100957505050505090565b9091929394602061102b61102583856001950387528951610fbe565b97610fcb565b9301930191939290610ffa565b61104d9160208201915f818403910152610fd1565b90565b346110805761107c61106b6110663660046105ae565b61330a565b611073610232565b91829182611038565b0390f35b610238565b346110b5576110b16110a061109b3660046105ae565b613367565b6110a8610232565b918291826102b7565b0390f35b610238565b346110e8576110d26110cd3660046105ae565b61349c565b6110da610232565b806110e481610576565b0390f35b610238565b9060208282031261110657611103915f0161040c565b90565b61023c565b3461113b576111376111266111213660046110ed565b6134a7565b61112e610232565b91829182610623565b0390f35b610238565b919060a0838203126111c1575f83013567ffffffffffffffff81116111bc578161116b9185016103d5565b926111798260208301610432565b92604082013567ffffffffffffffff81116111b75761119d846111b49285016103d5565b936111ab8160608601610432565b93608001610432565b90565b610301565b610301565b61023c565b346111f8576111e26111d9366004611140565b93929092613939565b6111ea610232565b806111f481610576565b0390f35b610238565b5190565b60209181520190565b60200190565b611219906106a0565b9052565b9061122a81602093611210565b0190565b60200190565b9061125161124b611244846111fd565b8093611201565b9261120a565b905f5b8181106112615750505090565b90919261127a611274600192865161121d565b9461122e565b9101919091611254565b6112999160208201915f818403910152611234565b90565b346112cc576112c86112b76112b23660046110ed565b613e05565b6112bf610232565b91829182611284565b0390f35b610238565b90565b6112e86112e36112ed926112d1565b610e5c565b61041b565b90565b6112fa600a6112d4565b90565b6113056112f0565b90565b3461133857611318366004610240565b6113346113236112fd565b61132b610232565b91829182610623565b0390f35b610238565b90565b61135461134f6113599261133d565b610e5c565b61041b565b90565b6113666002611340565b90565b61137161135c565b90565b346113a457611384366004610240565b6113a061138f611369565b611397610232565b91829182610623565b0390f35b610238565b346113d7576113c16113bc3660046105ae565b614258565b6113c9610232565b806113d381610576565b0390f35b610238565b919060408382031261140457806113f8611401925f86016106b7565b936020016106b7565b90565b61023c565b90611413906106e4565b5f5260205260405f2090565b90611429906106e4565b5f5260205260405f2090565b61144590600861144a930261024f565b610837565b90565b906114589154611435565b90565b6114746114799261146f6002935f94611409565b61141f565b61144d565b90565b346114ad576114a96114986114923660046113dc565b9061145b565b6114a0610232565b91829182610623565b0390f35b610238565b91906040838203126114da57806114ce6114d7925f86016106b7565b93602001610432565b90565b61023c565b906114e9906106e4565b5f5260205260405f2090565b634e487b7160e01b5f52603260045260245ffd5b5490565b5f5260205f2090565b61151f81611509565b8210156115395761153160089161150d565b910201905f90565b6114f5565b6115499060016114df565b9061155382611509565b8110156115d85761156391611516565b5061156f5f82016107ef565b9161157c600183016107ef565b916115896002820161082a565b916115966003830161084e565b916115a36004820161084e565b916115b06005830161084e565b916115bd6006820161084e565b916115d560076115ce8185016108e8565b930161094c565b90565b5f80fd5b6115e590610c30565b9052565b9694929998979593919061012088018881035f8a015261160891610b4c565b878103602089015261161991610b4c565b9860408701611627916102aa565b6060860161163491610616565b6080850161164191610616565b60a0840161164e91610616565b60c0830161165b91610616565b60e08201611668916115dc565b6101000161167591610d3a565b565b346116b2576116ae61169361168d3660046114b2565b9061153e565b956116a5999799959195949294610232565b998a998a6115e9565b0390f35b610238565b906116c1906106e4565b5f5260205260405f2090565b6116e3906116de6004915f926116b7565b610276565b90565b34611716576117126117016116fc3660046106c6565b6116cd565b611709610232565b918291826102b7565b0390f35b610238565b61172f61172a61173492610293565b610e5c565b610293565b90565b6117409061171b565b90565b61174c90611737565b90565b9061175990611743565b5f5260205260405f2090565b61177b906117766005915f9261174f565b61144d565b90565b346117ae576117aa6117996117943660046110ed565b611765565b6117a1610232565b91829182610623565b0390f35b610238565b91909160408184031261180b575f81013567ffffffffffffffff811161180657836117df9183016103d5565b92602082013567ffffffffffffffff8111611801576117fe92016103d5565b90565b610301565b610301565b61023c565b939561187560e09661186b611889969c9b996118616118566118909d986118478c61187f9a6101008201915f818403910152610b4c565b908c6020818403910152610b4c565b9e60408b01906102aa565b6060890190610616565b6080870190610616565b60a0850190610616565b60c0830190610616565b01906115dc565b565b346118cd576118c96118ae6118a83660046117b3565b9061430d565b946118c0989698949194939293610232565b98899889611810565b0390f35b610238565b90565b6118e96118e46118ee926118d2565b610e5c565b61041b565b90565b6118fb60646118d5565b90565b6119066118f1565b90565b3461193957611919366004610240565b6119356119246118fe565b61192c610232565b91829182610623565b0390f35b610238565b6119486005610e5f565b90565b61195361193e565b90565b3461198657611966366004610240565b61198261197161194b565b611979610232565b91829182610623565b0390f35b610238565b919061199e905f60208501940190610d3a565b565b346119d0576119cc6119bb6119b63660046105ae565b61446b565b6119c3610232565b9182918261198b565b0390f35b610238565b6119e160075f90610276565b90565b34611a14576119f4366004610240565b611a106119ff6119d5565b611a07610232565b918291826102b7565b0390f35b610238565b9194611a6960a094989795611a5f611a54611a7a99611a46611a739760c08a01908a82035f8c0152610b4c565b9088820360208a0152610b4c565b9a60408701906102aa565b60608501906102aa565b6080830190610616565b0190610d3a565b565b34611ab357611aaf611a97611a923660046105ae565b614608565b92611aa6969496929192610232565b96879687611a19565b0390f35b610238565b9190604083820312611ae05780611ad4611add925f860161040c565b93602001610432565b90565b61023c565b90611aef90611743565b5f5260205260405f2090565b5490565b5f5260205f2090565b611b1181611afb565b821015611b2b57611b23600191611aff565b910201905f90565b6114f5565b90565b611b43906008611b48930261024f565b611b30565b90565b90611b569154611b33565b90565b611b64906003611ae5565b611b6d81611afb565b821015611b8a57611b8791611b8191611b08565b90611b4b565b90565b5f80fd5b611b97906106a0565b9052565b9190611bae905f60208501940190611b8e565b565b34611be157611bdd611bcc611bc6366004611ab8565b90611b59565b611bd4610232565b91829182611b9b565b0390f35b610238565b60018060a01b031690565b611c01906008611c06930261024f565b611be6565b90565b90611c149154611bf1565b90565b611c2360095f90611c09565b90565b611c2f90611737565b90565b611c3b90611c26565b9052565b9190611c52905f60208501940190611c32565b565b34611c8457611c64366004610240565b611c80611c6f611c17565b611c77610232565b91829182611c3f565b0390f35b610238565b9998969492909c9b9a9c97959391976101808b018b81035f8d0152611cad91610b4c565b9760208b01611cbb916102aa565b60408a01611cc891610616565b60608901611cd591610616565b60808801611ce291610616565b60a08701611cef91610ba4565b60c08601611cfc91610bd8565b60e08501611d0991610616565b6101008401611d1791610d2d565b828103610120840152611d2991610c56565b936101408201611d3891610616565b61016001611d4591610616565b565b34611d8757611d83611d62611d5d3660046105ae565b6148db565b98611d7a9c9a9c989198979297969396959495610232565b9c8d9c8d611c89565b0390f35b610238565b60018060a01b031690565b611da7906008611dac930261024f565b611d8c565b90565b90611dba9154611d97565b90565b611dc9600a5f90611daf565b90565b611dd590611737565b90565b611de190611dcc565b9052565b9190611df8905f60208501940190611dd8565b565b34611e2a57611e0a366004610240565b611e26611e15611dbd565b611e1d610232565b91829182611de5565b0390f35b610238565b60018060a01b031690565b611e4a906008611e4f930261024f565b611e2f565b90565b90611e5d9154611e3a565b90565b611e6c60085f90611e52565b90565b611e7890611737565b90565b611e8490611e6f565b9052565b9190611e9b905f60208501940190611e7b565b565b34611ecd57611ead366004610240565b611ec9611eb8611e60565b611ec0610232565b91829182611e88565b0390f35b610238565b34611f0257611efe611eed611ee83660046105ae565b614a32565b611ef5610232565b9182918261198b565b0390f35b610238565b5f80fd5b611f1c90611f17614b50565b612821565b565b5f7f4a6f6220494420616c7265616479206578697374730000000000000000000000910152565b611f526015602092610b38565b611f5b81611f1e565b0190565b611f749060208101905f818303910152611f45565b90565b15611f7e57565b611f86610232565b62461bcd60e51b815280611f9c60048201611f5f565b0390fd5b611faa905161041b565b90565b5f7f496e76616c696420646561646c696e6500000000000000000000000000000000910152565b611fe16010602092610b38565b611fea81611fad565b0190565b6120039060208101905f818303910152611fd4565b90565b1561200d57565b612015610232565b62461bcd60e51b81528061202b60048201611fee565b0390fd5b612039905161029e565b90565b6120469051610b8c565b90565b6120539051610bc0565b90565b90565b61206d61206861207292612056565b610e5c565b610293565b90565b61207e90612059565b90565b61208c610120610350565b90565b906120a161209c83610371565b610350565b918252565b6120af5f61208f565b90565b6120ba6120a6565b90565b6120d16120cc6120d692612056565b610e5c565b61041b565b90565b6120e46101a0610350565b90565b906120f190610b8c565b9052565b906120ff90610bc0565b9052565b52565b9061211090610d15565b9052565b634e487b7160e01b5f525f60045260245ffd5b5190565b601f602091010490565b1b90565b9190600861215491029161214e5f1984612135565b92612135565b9181191691161790565b61217261216d6121779261041b565b610e5c565b61041b565b90565b90565b919061219361218e61219b9361215e565b61217a565b908354612139565b9055565b5f90565b6121b5916121af61219f565b9161217d565b565b5f5b8281106121c557505050565b806121d45f60019385016121a3565b016121b9565b9190601f81116121ea575b505050565b8181116121f7575b6121e5565b61220c61220661222a9461074d565b9161212b565b9160206122188261212b565b9110612232575b8091019103906121b7565b5f80806121f2565b505f61221f565b90612249905f199060080261024f565b191690565b8161225891612239565b906002021790565b9061226a81610b34565b9067ffffffffffffffff821161232a5761228e82612288855461071a565b856121da565b602090601f83116001146122c2579180916122b1935f926122b6575b505061224e565b90555b565b90915001515f806122aa565b601f198316916122d18561074d565b925f5b818110612312575091600293918560019694106122f8575b505050020190556122b4565b612308910151601f841690612239565b90555f80806122ec565b919360206001819287870151815501950192016122d4565b610313565b9061233991612260565b565b5f1b90565b9061235160018060a01b039161233b565b9181191691161790565b90565b9061237361236e61237a92611743565b61235b565b8254612340565b9055565b9061238a5f199161233b565b9181191691161790565b906123a96123a46123b09261215e565b61217a565b825461237e565b9055565b906123c060ff9161233b565b9181191691161790565b6123d390610b8c565b90565b90565b906123ee6123e96123f5926123ca565b6123d6565b82546123b4565b9055565b60081b90565b9061240c61ff00916123f9565b9181191691161790565b61241f90610bc0565b90565b90565b9061243a61243561244192612416565b612422565b82546123ff565b9055565b5190565b6124539051610918565b90565b61245f90610918565b90565b90565b9061247a61247561248192612456565b612462565b82546123b4565b9055565b61248f9051610959565b90565b61249b90610959565b90565b90565b906124b66124b16124bd92612492565b61249e565b82546123ff565b9055565b9061259b61010060076125a1946124e55f82016124df5f8801612127565b9061232f565b6124fe600182016124f860208801612127565b9061232f565b612517600282016125116040880161202f565b9061235e565b6125306003820161252a60608801611fa0565b90612394565b6125496004820161254360808801611fa0565b90612394565b6125626005820161255c60a08801611fa0565b90612394565b61257b6006820161257560c08801611fa0565b90612394565b61259382820161258d60e08801612449565b90612465565b019201612485565b906124a1565b565b906125ad916124c1565b565b6125b99051610d15565b90565b6125c590610d15565b90565b90565b906125e06125db6125e7926125bc565b6125c8565b82546123b4565b9055565b9061272d61018060116127339461260f5f82016126095f8801612127565b9061232f565b612628600182016126226020880161202f565b9061235e565b6126416002820161263b60408801611fa0565b90612394565b61265a6003820161265460608801611fa0565b90612394565b6126736004820161266d60808801611fa0565b90612394565b61268c6005820161268660a0880161203c565b906123d9565b6126a56005820161269f60c08801612049565b90612425565b6126be600682016126b860e08801611fa0565b90612394565b6126d8600782016126d26101008801612445565b906125a3565b6126f2600f82016126ec6101208801611fa0565b90612394565b61270c601082016127066101408801611fa0565b90612394565b61272582820161271f61016088016125af565b906125cb565b019201612485565b906124a1565b565b9061273f916125eb565b565b61274d61275291610811565b611d8c565b90565b61275f9054612741565b90565b61276e61277391610811565b611be6565b90565b6127809054612762565b90565b5f80fd5b60e01b90565b5f91031261279757565b61023c565b6040906127c56127cc94969593966127bb60608401985f8501906102aa565b60208301906102aa565b0190610616565b565b6127d6610232565b3d5f823e3d90fd5b61281861281f9461280e6128036060959998969960808601908682035f880152610b4c565b9860208501906102aa565b6040830190610616565b0190610616565b565b805f015161282e90614b7b565b5f81612839916106f0565b6011016128459061094c565b5f61284f90610959565b9061285990610959565b1461286390611f77565b8160600161287090611fa0565b4261287a9061041b565b906128849061041b565b1161288e90612006565b815f01518260200161289f9061202f565b836080016128ac90611fa0565b846060016128b990611fa0565b856040016128c690611fa0565b8660a0016128d39061203c565b8760c0016128e090612049565b8860e0016128ed90611fa0565b90895f0151925f6128fd90612075565b5f5f5f5f915f935f9561290e612081565b9a6129176120b2565b5f8d0190612924916108af565b60208c0190612932916108af565b60408b0190612940916108b2565b612949906120bd565b60608a0190612957916108c0565b612960906120bd565b608089019061296e916108c0565b612977906120bd565b60a0880190612985916108c0565b61298e906120bd565b60c087019061299c916108c0565b60e08601906129aa91610924565b6101008501906129b99161095e565b5f945f965f9860019a6129ca6120d9565b9c5f8e01906129d8916108af565b60208d01906129e6916108b2565b60408c01906129f4916108c0565b60608b0190612a02916108c0565b60808a0190612a10916108c0565b60a0890190612a1e916120e7565b60c0880190612a2c916120f5565b60e0870190612a3a916108c0565b610100860190612a4991612103565b612a52906120bd565b610120850190612a61916108c0565b612a6a906120bd565b610140840190612a79916108c0565b610160830190612a8891612106565b610180820190612a979161095e565b5f82612aa2916106f0565b90612aac91612735565b612ab6600a612755565b612abf90611dcc565b9063beabacc883602001612ad29061202f565b612adc6009612776565b612ae590611c26565b9385604001612af390611fa0565b92813b15612c16575f612b1991612b248296612b0d610232565b998a9788968795612787565b85526004850161279c565b03925af1918215612c1157612b8192612be5575b505f83015190612b546001612b4e5f84906106f0565b0161082a565b612b726004612b6c612b655f612075565b945f6106f0565b0161084e565b92612b7b6120b2565b90614bed565b5f810151612b916020830161202f565b90612be0612bad6060612ba660408701611fa0565b9501611fa0565b7f7df033706c6c6e9c5a261290d8d9c2f4666e6125ea3b7812375a5e183b9a757594612bd7610232565b948594856127de565b0390a1565b612c04905f3d8111612c0a575b612bfc8183610327565b81019061278d565b5f612b38565b503d612bf2565b6127ce565b612783565b612c2490611f0b565b565b612c3790612c32614d71565b612cf7565b565b90565b5f7f4a6f6220646f6573206e6f742065786973740000000000000000000000000000910152565b612c706012602092610b38565b612c7981612c3c565b0190565b612c929060208101905f818303910152612c63565b90565b15612c9c57565b612ca4610232565b62461bcd60e51b815280612cba60048201612c7d565b0390fd5b634e487b7160e01b5f52601160045260245ffd5b612ce1612ce79193929361041b565b9261041b565b8201809211612cf257565b612cbe565b612d0081614b7b565b90612d14612d0f5f84906106f0565b612c39565b612d28612d236011830161094c565b612c95565b612d3460118201610a75565b612d47612d416001610d15565b91610d15565b03612e0e57612d71612d65612d60612dd89560046116b7565b61082a565b916011600291016125cb565b612d96612d88612d836005849061174f565b61084e565b612d9061135c565b90612cd2565b612daf612da9612da46118f1565b61041b565b9161041b565b115f14612dda57612dd290612dcd612dc56118f1565b91600561174f565b612394565b5b61325f565b565b612e0990612e03612df4612dec61135c565b92600561174f565b91612dfe8361084e565b612cd2565b90612394565b612dd3565b505050565b612e1c90612c26565b565b5f7f4a6f6220494420646f6573206e6f742065786973740000000000000000000000910152565b612e526015602092610b38565b612e5b81612e1e565b0190565b612e749060208101905f818303910152612e45565b90565b15612e7e57565b612e86610232565b62461bcd60e51b815280612e9c60048201612e5f565b0390fd5b6010612ef2612eba612ef893612eb461219f565b50614b7b565b612eec612ed36011612ecd5f85906106f0565b0161094c565b612ee6612ee06001610959565b91610959565b14612e77565b5f6106f0565b0161084e565b90565b612f0c90612f07614d71565b612f4b565b565b612f1d612f239193929361041b565b9261041b565b8203918211612f2e57565b612cbe565b612f489160208201915f818403910152610b4c565b90565b612f5481614b7b565b612f67612f625f83906106f0565b612c39565b90612f7c612f776011840161094c565b612c95565b612f8860118301610a75565b612f9b612f956001610d15565b91610d15565b0361308c57612fb6612fb1612fc29260046116b7565b61082a565b916011600391016125cb565b612fd6612fd16005839061174f565b61084e565b612fef612fe9612fe461193e565b61041b565b9161041b565b115f1461306a576130259061301f61301061300861193e565b92600561174f565b9161301a8361084e565b612f0e565b90612394565b5b61302f8161349c565b6130657f3777026814d14632bfe1a6976f11cd0b5604437ddb1e3e0a79d8c03f87bd5fd49161305c610232565b91829182612f33565b0390a1565b6130879061308261307a5f6120bd565b91600561174f565b612394565b613026565b505050565b61309a90612efb565b565b6130ad906130a8614d71565b613157565b565b5f7f4e6f206163636570746564206269640000000000000000000000000000000000910152565b6130e3600f602092610b38565b6130ec816130af565b0190565b6131059060208101905f8183039101526130d6565b90565b1561310f57565b613117610232565b62461bcd60e51b81528061312d600482016130f0565b0390fd5b9291602061314d6131559360408701908782035f890152610b4c565b940190610616565b565b6131776004600761317061316a85614b7b565b5f6106f0565b010161084e565b906131948261318e6131885f6120bd565b9161041b565b11613108565b6131a66131a16009612776565b611c26565b636ba2846b828492803b1561325a576131d25f80946131dd6131c6610232565b97889687958694612787565b845260048401613131565b03925af1801561325557613229575b50907f977a94805f2c06db071419809226133f33d176923ff9a432f82afb907e5e0a6d9161322461321b610232565b92839283613131565b0390a1565b613248905f3d811161324e575b6132408183610327565b81019061278d565b5f6131ec565b503d613236565b6127ce565b612783565b6132689061309c565b565b606090565b67ffffffffffffffff81116132875760208091020190565b610313565b9061329e6132998361326f565b610350565b918252565b6132ac9061097a565b90565b906132b982611509565b6132c28161328c565b926132d0602085019161150d565b5f915b8383106132e05750505050565b600860206001926132f0856132a3565b8152019201920191906132d3565b613307906132af565b90565b61335b6133226133609261331c61326a565b50614b7b565b61335461333b60116133355f85906106f0565b0161094c565b61334e6133486001610959565b91610959565b14612e77565b60016114df565b6132fe565b90565b5f90565b6133b861337f6133bd92613379613363565b50614b7b565b6133b161339860116133925f85906106f0565b0161094c565b6133ab6133a56001610959565b91610959565b14612e77565b60046116b7565b61082a565b90565b6133d1906133cc614d71565b6133d3565b565b6133e56133e06009612776565b611c26565b63fe5f2e8882823b156134975761341b926134105f8094613404610232565b96879586948593612787565b835260048301612f33565b03925af1801561349257613466575b506134617f3777026814d14632bfe1a6976f11cd0b5604437ddb1e3e0a79d8c03f87bd5fd491613458610232565b91829182612f33565b0390a1565b613485905f3d811161348b575b61347d8183610327565b81019061278d565b5f61342a565b503d613473565b6127ce565b612783565b6134a5906133c0565b565b6134be6134c3916134b661219f565b50600561174f565b61084e565b90565b5f7f496e76616c696420746f6b656e20616d6f756e74000000000000000000000000910152565b6134fa6014602092610b38565b613503816134c6565b0190565b61351c9060208101905f8183039101526134ed565b90565b1561352657565b61352e610232565b62461bcd60e51b81528061354460048201613507565b0390fd5b5f7f496e76616c69642074696d650000000000000000000000000000000000000000910152565b61357c600c602092610b38565b61358581613548565b0190565b61359e9060208101905f81830391015261356f565b90565b156135a857565b6135b0610232565b62461bcd60e51b8152806135c660048201613589565b0390fd5b5f7f4d6178696d756d20626964732072656163686564000000000000000000000000910152565b6135fe6014602092610b38565b613607816135ca565b0190565b6136209060208101905f8183039101526135f1565b90565b1561362a57565b613632610232565b62461bcd60e51b8152806136486004820161360b565b0390fd5b5f7f4a6f622068617320657870697265640000000000000000000000000000000000910152565b613680600f602092610b38565b6136898161364c565b0190565b6136a29060208101905f818303910152613673565b90565b156136ac57565b6136b4610232565b62461bcd60e51b8152806136ca6004820161368d565b0390fd5b5f7f4c6f772072657075746174696f6e000000000000000000000000000000000000910152565b613702600e602092610b38565b61370b816136ce565b0190565b6137249060208101905f8183039101526136f5565b90565b1561372e57565b613736610232565b62461bcd60e51b81528061374c6004820161370f565b0390fd5b5f7f546f6f20657870656e7369766500000000000000000000000000000000000000910152565b613784600d602092610b38565b61378d81613750565b0190565b6137a69060208101905f818303910152613777565b90565b156137b057565b6137b8610232565b62461bcd60e51b8152806137ce60048201613791565b0390fd5b5f7f42696420494420616c7265616479206578697374730000000000000000000000910152565b6138066015602092610b38565b61380f816137d2565b0190565b6138289060208101905f8183039101526137f9565b90565b1561383257565b61383a610232565b62461bcd60e51b81528061385060048201613813565b0390fd5b90565b5f5260205f2090565b5490565b61386d81613860565b8210156138875761387f600891613857565b910201905f90565b6114f5565b919061389d5761389b916124c1565b565b612114565b90815491680100000000000000008310156138d257826138ca9160016138d095018155613864565b9061388c565b565b610313565b6138e09061041b565b5f1981146138ee5760010190565b612cbe565b6139306139256139379597969461391760609560808601908682035f880152610b4c565b908482036020860152610b4c565b9660408301906102aa565b0190610616565b565b919293909361395a8561395461394e5f6120bd565b9161041b565b1161351f565b6139768261397061396a5f6120bd565b9161041b565b116135a1565b61399061398b61398586614a32565b15610959565b613623565b6139aa6139a561399f8661446b565b15610959565b6136a5565b6139b384614b7b565b906139bd84614b7b565b926139d26139cd6005339061174f565b61084e565b6139e46139de5f6120bd565b9161041b565b14613d1d575b6005336139f69161174f565b6139ff9061084e565b5f84613a0a916106f0565b600601613a169061084e565b613a1f9061041b565b90613a299061041b565b1015613a3490613727565b865f84613a40916106f0565b600401613a4c9061084e565b613a559061041b565b90613a5f9061041b565b1115613a6a906137a9565b5f83613a75916106f0565b601101613a819061094c565b6001613a8c90610959565b90613a9690610959565b14613aa090612e77565b600283613aac91611409565b84613ab69161141f565b613abf9061084e565b5f613ac9906120bd565b90613ad39061041b565b14613add9061382b565b8491869133919089600533613af19161174f565b613afa9061084e565b925f94600196613b08612081565b985f8a0190613b16916108af565b6020890190613b24916108af565b6040880190613b32916108b2565b6060870190613b40916108c0565b6080860190613b4e916108c0565b60a0850190613b5c916108c0565b60c0840190613b6a916108c0565b60e0830190613b7891610924565b610100820190613b879161095e565b91600182613b94916114df565b613b9d90613854565b83613ba7916138a2565b600182613bb3916114df565b613bbc90611509565b90600283613bc991611409565b90613bd39161141f565b90613bdd91612394565b5f81613be8916106f0565b601001613bf48161084e565b613bfd906138d7565b613c0691612394565b5f81613c11916106f0565b8290613c1c90612c39565b90613c2691614e22565b5f82613c31916106f0565b600701600701613c409061094c565b5f14613ceb57613c5c600f613c565f85906106f0565b0161084e565b613c6f613c69839261041b565b9161041b565b11613cb6575b5050505b613cb133937f13e00374cfcb71bed76692cb4070670a8571ef65691cd9670c258ec546a6bb7594613ca8610232565b948594856138f3565b0390a1565b613cdd600f91613cd6613ce3956007613cd05f88906106f0565b016125a3565b925f6106f0565b01612394565b5f8080613c75565b613d12600f91613d0b613d18956007613d055f88906106f0565b016125a3565b925f6106f0565b01612394565b613c79565b613d39613d286112f0565b613d346005339061174f565b612394565b6139ea565b606090565b60209181520190565b613d58613d5d91610811565b611b30565b90565b613d6a9054613d4c565b90565b60010190565b90613d90613d8a613d8384611afb565b8093613d43565b92611aff565b905f5b818110613da05750505090565b909192613dc0613dba600192613db587613d60565b61121d565b94613d6d565b9101919091613d93565b90613dd491613d73565b90565b90613df7613df092613de7610232565b93848092613dca565b0383610327565b565b613e0290613dd7565b90565b613e1c613e2191613e14613d3e565b506003611ae5565b613df9565b90565b613e3590613e30614d71565b613f7a565b565b5f7f4e6f742072656164790000000000000000000000000000000000000000000000910152565b613e6b6009602092610b38565b613e7481613e37565b0190565b613e8d9060208101905f818303910152613e5e565b90565b15613e9757565b613e9f610232565b62461bcd60e51b815280613eb560048201613e78565b0390fd5b90565b5f5260205f2090565b5490565b613ed281613ec5565b821015613eec57613ee4600191613ebc565b910201905f90565b6114f5565b613efa90610811565b90565b9190613f13613f0e613f1b936106e4565b613ef1565b908354612139565b9055565b9081549168010000000000000000831015613f4f5782613f47916001613f4d95018155613ec9565b90613efd565b565b610313565b92916020613f70613f789360408701908782035f890152610b4c565b9401906102aa565b565b613f8381614b7b565b90613fb6613f9d6011613f975f86906106f0565b0161094c565b613fb0613faa6001610959565b91610959565b14612e77565b613fcc6011613fc65f85906106f0565b01610a75565b613fde613fd85f610d15565b91610d15565b0361425457613ff96010613ff35f85906106f0565b0161084e565b61401261400c614007610e7b565b61041b565b9161041b565b1015801561421f575b61402490613e90565b61403a60106140345f85906106f0565b0161084e565b61404c6140465f6120bd565b9161041b565b14614188576140bd614075604061406f60076140695f88906106f0565b016132a3565b0161202f565b9261408e600160116140885f85906106f0565b016125cb565b6140ac6140a56140a060038790611ae5565b613eb9565b8290613f1f565b6140b8849160046116b7565b61235e565b6140cf6140ca6009612776565b611c26565b63d42a84b3828492803b15614183576140fb5f80946141066140ef610232565b97889687958694612787565b845260048401613f54565b03925af1801561417e57614152575b50907fbfaf4dbcb0d7e35ff6a21c4be1f724d8f60ffbc4b44e9b9ee590012fbb3f9b3e9161414d614144610232565b92839283613f54565b0390a1565b614171905f3d8111614177575b6141698183610327565b81019061278d565b5f614115565b503d61415f565b6127ce565b612783565b906141a190601161419b6003925f6106f0565b016125cb565b806141d87f9c6937cc32d07077b3aa8e78f7d12cbf20eafabe9e2f6f6361f4fe84374f956b916141cf610232565b91829182612f33565b0390a16141e48161349c565b61421a7f3777026814d14632bfe1a6976f11cd0b5604437ddb1e3e0a79d8c03f87bd5fd491614211610232565b91829182612f33565b0390a1565b506140244261424b614245614240600361423a5f89906106f0565b0161084e565b61041b565b9161041b565b1015905061401b565b5050565b61426190613e24565b565b606090565b5f90565b5f7f42696420494420646f6573206e6f742065786973740000000000000000000000910152565b6142a06015602092610b38565b6142a98161426c565b0190565b6142c29060208101905f818303910152614293565b90565b156142cc57565b6142d4610232565b62461bcd60e51b8152806142ea600482016142ad565b0390fd5b90565b61430561430061430a926142ee565b610e5c565b61041b565b90565b614404916143f86143e761439061438b61437a6143746143fe9761432f614263565b50614338614263565b50614341613363565b5061434a61219f565b5061435361219f565b5061435c61219f565b5061436561219f565b5061436e614268565b50614b7b565b95614b7b565b61438660028790611409565b61141f565b61084e565b926143c36143aa60116143a45f85906106f0565b0161094c565b6143bd6143b76001610959565b91610959565b14612e77565b6143e0846143d96143d35f6120bd565b9161041b565b14156142c5565b60016114df565b916143f260016142f1565b90612f0e565b90611516565b506132a3565b905f8201519160208101519261441c6040830161202f565b9261442960808401611fa0565b9261443660608201611fa0565b9261444360a08301611fa0565b9261445c60e061445560c08601611fa0565b9401612449565b919796959493929190565b5f90565b61447d90614477614467565b50614b7b565b6144af61449660116144905f85906106f0565b0161094c565b6144a96144a36001610959565b91610959565b14612e77565b6144d66144d06144cb60036144c542955f6106f0565b0161084e565b61041b565b9161041b565b1190565b909291926144ef6144ea82610371565b610350565b9381855260208501908284011161450b5761450992610b41565b565b61036d565b9080601f8301121561452e5781602061452b935191016144da565b90565b610369565b90505190614540826103f8565b565b9050519061454f8261041e565b565b61455a81610959565b0361456157565b5f80fd5b9050519061457282614551565b565b909160c082840312614603575f82015167ffffffffffffffff81116145fe578361459f918401614510565b92602083015167ffffffffffffffff81116145f957816145c0918501614510565b926145ce8260408301614533565b926145f66145df8460608501614533565b936145ed8160808601614542565b9360a001614565565b90565b610301565b610301565b61023c565b5f61467c91614615614263565b5061461e614263565b50614627613363565b50614630613363565b5061463961219f565b50614642614467565b506146556146506009612776565b611c26565b61467163dc906182614665610232565b95869485938493612787565b835260048301612f33565b03915afa80156146d1575f808080808093979296909491956146a2575b50959493929190565b945050945050506146c591503d805f833e6146bd8183610327565b810190614574565b9193959092945f614699565b6127ce565b5f90565b5f90565b5f90565b606090565b5f90565b5f90565b5f90565b5f90565b6146ff61096c565b90602080808080808080808a6147136146e2565b81520161471e6146e2565b8152016147296146e7565b8152016147346146eb565b81520161473f6146eb565b81520161474a6146eb565b8152016147556146eb565b8152016147606146ef565b81520161476b6146f3565b81525050565b6147796146f7565b90565b6147876101a0610350565b90565b906148cd6148c3601161479b61477c565b946147b26147aa5f83016107ef565b5f88016108af565b6147ca6147c16001830161082a565b602088016108b2565b6147e26147d96002830161084e565b604088016108c0565b6147fa6147f16003830161084e565b606088016108c0565b6148126148096004830161084e565b608088016108c0565b61482a61482160058301610875565b60a088016120e7565b614842614839600583016108a2565b60c088016120f5565b61485a6148516006830161084e565b60e088016108c0565b6148736148696007830161097a565b6101008801612103565b61488c614882600f830161084e565b61012088016108c0565b6148a561489b6010830161084e565b61014088016108c0565b6148bd6148b3838301610a75565b6101608801612106565b0161094c565b610180840161095e565b565b6148d89061478a565b90565b61498e614956614993926148ed614263565b506148f6613363565b506148ff61219f565b5061490861219f565b5061491161219f565b5061491a6146d6565b506149236146da565b5061492c61219f565b506149356146de565b5061493e614771565b5061494761219f565b5061495061219f565b50614b7b565b61498861496f60116149695f85906106f0565b0161094c565b61498261497c6001610959565b91610959565b14612e77565b5f6106f0565b6148cf565b905f820151906149a56020840161202f565b926149b260808201611fa0565b926149bf60408301611fa0565b926149cc60608401611fa0565b926149d960a0820161203c565b926149e660c08301612049565b926149f360e08401611fa0565b92614a0161016082016125af565b9261010082015192614a23610140614a1c6101208601611fa0565b9401611fa0565b919b9a99989796959493929190565b6010614a84614a4c614a8a93614a46614467565b50614b7b565b614a7e614a656011614a5f5f85906106f0565b0161094c565b614a78614a726001610959565b91610959565b14612e77565b5f6106f0565b0161084e565b614aa3614a9d614a98610e7b565b61041b565b9161041b565b101590565b60207f66756e6374696f6e000000000000000000000000000000000000000000000000917f4f6e6c7920746865206465706c6f7965722063616e2063616c6c2074686973205f8201520152565b614b026028604092610b38565b614b0b81614aa8565b0190565b614b249060208101905f818303910152614af5565b90565b15614b2e57565b614b36610232565b62461bcd60e51b815280614b4c60048201614b0f565b0390fd5b614b7533614b6f614b69614b64600761082a565b61029e565b9161029e565b14614b27565b565b5f90565b614b83614b77565b50614b8c614b77565b506020815191012090565b90614beb94614bda614bcf608095614bc1614be4959b9a989b60a08801908882035f8a0152610b4c565b908682036020880152610b4c565b9860408501906102aa565b60608301906102aa565b0190610616565b565b90919293614c03614bfe6009612776565b611c26565b9163ed51b9ce8185948792898691833b15614cc457614c43614c38935f97938894614c2c610232565b9c8d998a988997612787565b875260048701614b97565b03925af1928315614cbf57614c8e93614c93575b509293947f1e01bdb742edd399bb76751c17a5914ac85dfd2756f9b6cb5798aedacf4f5a8f95614c85610232565b95869586614b97565b0390a1565b614cb2905f3d8111614cb8575b614caa8183610327565b81019061278d565b5f614c57565b503d614ca0565b6127ce565b612783565b60207f69732066756e6374696f6e000000000000000000000000000000000000000000917f4f6e6c792074686520636f6f7264696e61746f722063616e2063616c6c2074685f8201520152565b614d23602b604092610b38565b614d2c81614cc9565b0190565b614d459060208101905f818303910152614d16565b90565b15614d4f57565b614d57610232565b62461bcd60e51b815280614d6d60048201614d30565b0390fd5b614d9633614d90614d8a614d85600661082a565b61029e565b9161029e565b14614d48565b565b90565b614daf614daa614db492614d98565b610e5c565b61041b565b90565b634e487b7160e01b5f52601260045260245ffd5b614dd7614ddd9161041b565b9161041b565b908115614de8570490565b614db7565b614dfc614e029193929361041b565b9261041b565b91614e0e83820261041b565b928184041490151715614e1d57565b612cbe565b614edb614ee192614ed560c0614ecd614e68614ec7614e9a614e6d600599614e4861219f565b50614e5c614e578c8301610875565b614f60565b96919c909692016108a2565b61501e565b98614e94670de0b6b3a7640000614e8f614e8960808c01611fa0565b91614d9b565b614dcb565b90614ded565b91614ec1670de0b6b3a7640000614ebc614eb660a08b01611fa0565b91614d9b565b614dcb565b90614ded565b90612cd2565b949201611fa0565b90614ded565b90612cd2565b90565b90565b614efb614ef6614f0092614ee4565b610e5c565b61041b565b90565b90565b614f1a614f15614f1f92614f03565b610e5c565b61041b565b90565b90565b614f39614f34614f3e92614f22565b610e5c565b61041b565b90565b90565b614f58614f53614f5d92614f41565b610e5c565b61041b565b90565b614f6861219f565b50614f7161219f565b50614f7a61219f565b5080614f8e614f885f610b8c565b91610b8c565b145f14614fbb57506032601491614fb8614fb2614fac600f94614f25565b94614f06565b92614f44565b90565b614fce614fc86001610b8c565b91610b8c565b145f14614ffa576014603291614ff7614ff1614feb600f94614f06565b94614f25565b92614f44565b90565b6019809161501b61501561500f601994614ee7565b94614ee7565b92614ee7565b90565b61502661219f565b508061503b6150356002610bc0565b91610bc0565b145f1461505b5750615057906150516014614f06565b90612cd2565b5b90565b61506d6150675f610bc0565b91610bc0565b14615078575b615058565b8061508c615086600a6112d4565b9161041b565b115f146150ad576150a7906150a1600a6112d4565b90612f0e565b5b615073565b506150b75f6120bd565b6150a856fea2646970667358221220a30e80194cfd775410336df062381aea602f833e35850c6e18245fc78c633af364736f6c63430008210033",
        "linkReferences": {}
    },
    "methodIdentifiers": {
        "INITIAL_REPUTATION()": "7b057258",
        "MAX_BID()": "4d91e1f7",
        "MAX_REPUTATION()": "d213c0f2",
        "REP_PENALTY()": "d49e05fa",
        "REP_REWARD()": "7b141f2e",
        "coordinator()": "0a009097",
        "createJob((string,address,uint256,uint256,uint256,uint8,uint8,uint256))": "0c9c825c",
        "deployer()": "d5f39488",
        "escrow()": "e2fdcc17",
        "finalizeJob(string)": "7e466d20",
        "getBidCountForJob(string)": "3198e4ee",
        "getBidDetails(string,string)": "c81e7f3a",
        "getBidsForJob(string)": "545e1735",
        "getEscrowDetails(string)": "dc906182",
        "getJobAssignee(string)": "5dc34d6f",
        "getJobDetails(string)": "e90ca747",
        "getJobsByNode(address)": "7a1bc1b3",
        "getNodeReputation(address)": "702e1fc1",
        "isJobExpired(string)": "d52ad0d8",
        "isMaxBidReached(string)": "ff5e5800",
        "jobBidIndexPlusOne(bytes32,bytes32)": "92427c99",
        "jobBids(bytes32,uint256)": "a3ad238f",
        "jobToAssignee(bytes32)": "b002058b",
        "jobs(bytes32)": "38ed7cfc",
        "markJobAsCompleted(string)": "2386ed92",
        "markJobAsFailed(string)": "373c2940",
        "nodeToJobs(address,uint256)": "ddb73d0d",
        "placeBid(string,uint256,string,uint256,uint256)": "7883bbc9",
        "refundEscrow(string)": "5fd2f400",
        "releaseEscrowFunds(string)": "5159c3c4",
        "reputation(address)": "b9f79451",
        "token()": "fc0c546a",
        "vault()": "fbfa77cf"
    },
    "id": 28
}