{"abi":[{"type":"constructor","inputs":[{"name":"_token","type":"address","internalType":"address"},{"name":"_deployer","type":"address","internalType":"address"}],"stateMutability":"nonpayable"},{"type":"function","name":"createEscrow","inputs":[{"name":"_jobId","type":"string","internalType":"string"},{"name":"_bidId","type":"string","internalType":"string"},{"name":"_payer","type":"address","internalType":"address"},{"name":"_payee","type":"address","internalType":"address"},{"name":"_amount","type":"uint256","internalType":"uint256"}],"outputs":[],"stateMutability":"nonpayable"},{"type":"function","name":"deployer","inputs":[],"outputs":[{"name":"","type":"address","internalType":"address"}],"stateMutability":"view"},{"type":"function","name":"entryPoint","inputs":[],"outputs":[{"name":"","type":"address","internalType":"address"}],"stateMutability":"view"},{"type":"function","name":"escrowData","inputs":[{"name":"","type":"bytes32","internalType":"bytes32"}],"outputs":[{"name":"jobId","type":"string","internalType":"string"},{"name":"bidId","type":"string","internalType":"string"},{"name":"payer","type":"address","internalType":"address"},{"name":"payee","type":"address","internalType":"address"},{"name":"amount","type":"uint256","internalType":"uint256"},{"name":"settled","type":"bool","internalType":"bool"},{"name":"exists","type":"bool","internalType":"bool"}],"stateMutability":"view"},{"type":"function","name":"getEscrowDetails","inputs":[{"name":"_jobId","type":"string","internalType":"string"}],"outputs":[{"name":"","type":"string","internalType":"string"},{"name":"","type":"string","internalType":"string"},{"name":"","type":"address","internalType":"address"},{"name":"","type":"address","internalType":"address"},{"name":"","type":"uint256","internalType":"uint256"},{"name":"","type":"bool","internalType":"bool"}],"stateMutability":"view"},{"type":"function","name":"refund","inputs":[{"name":"_jobId","type":"string","internalType":"string"}],"outputs":[],"stateMutability":"nonpayable"},{"type":"function","name":"releaseFunds","inputs":[{"name":"_jobId","type":"string","internalType":"string"},{"name":"_amount","type":"uint256","internalType":"uint256"}],"outputs":[],"stateMutability":"nonpayable"},{"type":"function","name":"setEntryPointAddress","inputs":[{"name":"_entrypoint","type":"address","internalType":"address"}],"outputs":[],"stateMutability":"nonpayable"},{"type":"function","name":"setPayee","inputs":[{"name":"_jobId","type":"string","internalType":"string"},{"name":"_payee","type":"address","internalType":"address"}],"outputs":[],"stateMutability":"nonpayable"},{"type":"function","name":"setVaultAddress","inputs":[{"name":"_vault","type":"address","internalType":"address"}],"outputs":[],"stateMutability":"nonpayable"},{"type":"function","name":"token","inputs":[],"outputs":[{"name":"","type":"address","internalType":"contract IERC20"}],"stateMutability":"view"},{"type":"function","name":"vault","inputs":[],"outputs":[{"name":"","type":"address","internalType":"contract IVault"}],"stateMutability":"view"},{"type":"error","name":"ReentrancyGuardReentrantCall","inputs":[]},{"type":"error","name":"SafeERC20FailedOperation","inputs":[{"name":"token","type":"address","internalType":"address"}]}],"bytecode":{"object":"0x6080604052346100305761001a610014610104565b9061031f565b610022610035565b6123b16104a282396123b190f35b61003b565b60405190565b5f80fd5b601f801991011690565b634e487b7160e01b5f52604160045260245ffd5b906100679061003f565b810190811060018060401b0382111761007f57604052565b610049565b90610097610090610035565b928361005d565b565b5f80fd5b60018060a01b031690565b6100b19061009d565b90565b6100bd816100a8565b036100c457565b5f80fd5b905051906100d5826100b4565b565b91906040838203126100ff57806100f36100fc925f86016100c8565b936020016100c8565b90565b610099565b6101226128538038038061011781610084565b9283398101906100d7565b9091565b90565b90565b61014061013b61014592610126565b610129565b61009d565b90565b6101519061012c565b90565b60209181520190565b5f7f496e76616c696420746f6b656e00000000000000000000000000000000000000910152565b610191600d602092610154565b61019a8161015d565b0190565b6101b39060208101905f818303910152610184565b90565b156101bd57565b6101c5610035565b62461bcd60e51b8152806101db6004820161019e565b0390fd5b5f7f496e76616c6964206465706c6f79657220616464726573730000000000000000910152565b6102136018602092610154565b61021c816101df565b0190565b6102359060208101905f818303910152610206565b90565b1561023f57565b610247610035565b62461bcd60e51b81528061025d60048201610220565b0390fd5b61027561027061027a9261009d565b610129565b61009d565b90565b61028690610261565b90565b6102929061027d565b90565b5f1b90565b906102ab60018060a01b0391610295565b9181191691161790565b6102be9061027d565b90565b90565b906102d96102d46102e0926102b5565b6102c1565b825461029a565b9055565b6102ed90610261565b90565b6102f9906102e4565b90565b90565b9061031461030f61031b926102f0565b6102fc565b825461029a565b9055565b9061038761038161038e93610332610414565b6103578161035061034a6103455f610148565b6100a8565b916100a8565b14156101b6565b61037c8461037561036f61036a5f610148565b6100a8565b916100a8565b1415610238565b610289565b5f6102c4565b60036102ff565b565b90565b90565b6103aa6103a56103af92610390565b610129565b610393565b90565b6103bc6001610396565b90565b906103cb5f1991610295565b9181191691161790565b6103e96103e46103ee92610393565b610129565b610393565b90565b90565b90610409610404610410926103d5565b6103f1565b82546103bf565b9055565b61043661041f6103b2565b5f61043061042b61048a565b61049e565b016103f4565b565b5f90565b90565b90565b61045661045161045b9261043c565b610295565b61043f565b90565b6104877f9b779b17422d0df92223018b32b4d1fa46e071723d6817e2486d003becc55f00610442565b90565b610492610438565b5061049b61045e565b90565b9056fe60806040526004361015610013575b610b60565b61001d5f356100dc565b80630e86f506146100d75780636ba2846b146100d25780636c34f698146100cd57806385535cc5146100c8578063b0d691fe146100c3578063d42a84b3146100be578063d5f39488146100b9578063dc906182146100b4578063ed51b9ce146100af578063fbfa77cf146100aa578063fc0c546a146100a55763fe5f2e880361000e57610b2d565b610af8565b610a56565b610986565b6108c4565b6107f7565b6107b4565b61073a565b6106aa565b61066e565b6102da565b610151565b60e01c90565b60405190565b5f80fd5b5f80fd5b5f80fd5b60018060a01b031690565b610108906100f4565b90565b610114816100ff565b0361011b57565b5f80fd5b9050359061012c8261010b565b565b9060208282031261014757610144915f0161011f565b90565b6100ec565b5f0190565b3461017f5761016961016436600461012e565b610ca5565b6101716100e2565b8061017b8161014c565b0390f35b6100e8565b5f80fd5b5f80fd5b601f801991011690565b634e487b7160e01b5f52604160045260245ffd5b906101b49061018c565b810190811067ffffffffffffffff8211176101ce57604052565b610196565b906101e66101df6100e2565b92836101aa565b565b67ffffffffffffffff81116102065761020260209161018c565b0190565b610196565b90825f939282370152565b9092919261022b610226826101e8565b6101d3565b93818552602085019082840111610247576102459261020b565b565b610188565b9080601f8301121561026a5781602061026793359101610216565b90565b610184565b90565b61027b8161026f565b0361028257565b5f80fd5b9050359061029382610272565b565b91906040838203126102d5575f8301359067ffffffffffffffff82116102d0576102c4816102cd93860161024c565b93602001610286565b90565b6100f0565b6100ec565b34610309576102f36102ed366004610295565b9061128f565b6102fb6100e2565b806103058161014c565b0390f35b6100e8565b90565b61031a8161030e565b0361032157565b5f80fd5b9050359061033282610311565b565b9060208282031261034d5761034a915f01610325565b90565b6100ec565b61035b9061030e565b90565b9061036890610352565b5f5260205260405f2090565b634e487b7160e01b5f52602260045260245ffd5b90600160028304921680156103a8575b60208310146103a357565b610374565b91607f1691610398565b60209181520190565b5f5260205f2090565b905f92918054906103de6103d783610388565b80946103b2565b916001811690815f1461043557506001146103f9575b505050565b61040691929394506103bb565b915f925b81841061041d57505001905f80806103f4565b6001816020929593955484860152019101929061040a565b92949550505060ff19168252151560200201905f80806103f4565b9061045a916103c4565b90565b9061047d6104769261046d6100e2565b93848092610450565b03836101aa565b565b5f1c90565b60018060a01b031690565b61049b6104a09161047f565b610484565b90565b6104ad905461048f565b90565b90565b6104bf6104c49161047f565b6104b0565b90565b6104d190546104b3565b90565b60ff1690565b6104e66104eb9161047f565b6104d4565b90565b6104f890546104da565b90565b60081c90565b61050d610512916104fb565b6104d4565b90565b61051f9054610501565b90565b61052d90600461035e565b6105385f820161045d565b916105456001830161045d565b91610552600282016104a3565b9161055f600383016104a3565b9161056c600482016104c7565b91610584600561057d8185016104ee565b9301610515565b90565b5190565b60209181520190565b90825f9392825e0152565b6105be6105c76020936105cc936105b581610587565b9384809361058b565b95869101610594565b61018c565b0190565b6105d9906100ff565b9052565b6105e69061026f565b9052565b151590565b6105f8906105ea565b9052565b9297969461065b9061065160c09661064761063c6106659761062e61066c9d9860e08c01908c5f81840391015261059f565b908a820360208c015261059f565b9c60408901906105d0565b60608701906105d0565b60808501906105dd565b60a08301906105ef565b01906105ef565b565b346106a5576106a1610689610684366004610334565b610522565b936106989795979391936100e2565b978897886105fc565b0390f35b6100e8565b346106d8576106c26106bd36600461012e565b6113b1565b6106ca6100e2565b806106d48161014c565b0390f35b6100e8565b5f9103126106e757565b6100ec565b1c90565b61070090600861070593026106ec565b610484565b90565b9061071391546106f0565b90565b61072260025f90610708565b90565b9190610738905f602085019401906105d0565b565b3461076a5761074a3660046106dd565b610766610755610716565b61075d6100e2565b91829182610725565b0390f35b6100e8565b91906040838203126107af575f8301359067ffffffffffffffff82116107aa5761079e816107a793860161024c565b9360200161011f565b90565b6100f0565b6100ec565b346107e3576107cd6107c736600461076f565b906114dc565b6107d56100e2565b806107df8161014c565b0390f35b6100e8565b6107f460035f90610708565b90565b34610827576108073660046106dd565b6108236108126107e8565b61081a6100e2565b91829182610725565b0390f35b6100e8565b9060208282031261085c575f82013567ffffffffffffffff811161085757610854920161024c565b90565b6100f0565b6100ec565b91946108b160a0949897956108a761089c6108c29961088e6108bb9760c08a01908a82035f8c015261059f565b9088820360208a015261059f565b9a60408701906105d0565b60608501906105d0565b60808301906105dd565b01906105ef565b565b346108fb576108f76108df6108da36600461082c565b6116be565b926108ee9694969291926100e2565b96879687610861565b0390f35b6100e8565b919060a083820312610981575f83013567ffffffffffffffff811161097c578161092b91850161024c565b92602081013567ffffffffffffffff8111610977578261094c91830161024c565b9261097461095d846040850161011f565b9361096b816060860161011f565b93608001610286565b90565b6100f0565b6100f0565b6100ec565b346109b8576109a2610999366004610900565b93929092611dad565b6109aa6100e2565b806109b48161014c565b0390f35b6100e8565b60018060a01b031690565b6109d89060086109dd93026106ec565b6109bd565b90565b906109eb91546109c8565b90565b6109fa60015f906109e0565b90565b90565b610a14610a0f610a19926100f4565b6109fd565b6100f4565b90565b610a2590610a00565b90565b610a3190610a1c565b90565b610a3d90610a28565b9052565b9190610a54905f60208501940190610a34565b565b34610a8657610a663660046106dd565b610a82610a716109ee565b610a796100e2565b91829182610a41565b0390f35b6100e8565b60018060a01b031690565b610aa6906008610aab93026106ec565b610a8b565b90565b90610ab99154610a96565b90565b610ac75f5f90610aae565b90565b610ad390610a1c565b90565b610adf90610aca565b9052565b9190610af6905f60208501940190610ad6565b565b34610b2857610b083660046106dd565b610b24610b13610abc565b610b1b6100e2565b91829182610ae3565b0390f35b6100e8565b34610b5b57610b45610b4036600461082c565b611f8d565b610b4d6100e2565b80610b578161014c565b0390f35b6100e8565b5f80fd5b610b7590610b70612040565b610c73565b565b90565b610b8e610b89610b9392610b77565b6109fd565b6100f4565b90565b610b9f90610b7a565b90565b5f7f496e76616c696420656e74727920706f696e7400000000000000000000000000910152565b610bd6601360209261058b565b610bdf81610ba2565b0190565b610bf89060208101905f818303910152610bc9565b90565b15610c0257565b610c0a6100e2565b62461bcd60e51b815280610c2060048201610be3565b0390fd5b5f1b90565b90610c3a60018060a01b0391610c24565b9181191691161790565b610c4d90610a1c565b90565b90565b90610c68610c63610c6f92610c44565b610c50565b8254610c29565b9055565b610ca390610c9c81610c95610c8f610c8a5f610b96565b6100ff565b916100ff565b1415610bfb565b6002610c53565b565b610cae90610b64565b565b90610cc291610cbd61210f565b610cc4565b565b90610cd691610cd1612162565b611054565b610cde6121ba565b565b90565b5f7f457363726f7720646f6573206e6f742065786973740000000000000000000000910152565b610d17601560209261058b565b610d2081610ce3565b0190565b610d399060208101905f818303910152610d0a565b90565b15610d4357565b610d4b6100e2565b62461bcd60e51b815280610d6160048201610d24565b0390fd5b5f7f416c726561647920736574746c65640000000000000000000000000000000000910152565b610d99600f60209261058b565b610da281610d65565b0190565b610dbb9060208101905f818303910152610d8c565b90565b15610dc557565b610dcd6100e2565b62461bcd60e51b815280610de360048201610da6565b0390fd5b5f7f4578636565647320657363726f77656420616d6f756e74000000000000000000910152565b610e1b601760209261058b565b610e2481610de7565b0190565b610e3d9060208101905f818303910152610e0e565b90565b15610e4757565b610e4f6100e2565b62461bcd60e51b815280610e6560048201610e28565b0390fd5b5f7f5061796565206e6f742073657400000000000000000000000000000000000000910152565b610e9d600d60209261058b565b610ea681610e69565b0190565b610ebf9060208101905f818303910152610e90565b90565b15610ec957565b610ed16100e2565b62461bcd60e51b815280610ee760048201610eaa565b0390fd5b90610ef760ff91610c24565b9181191691161790565b610f0a906105ea565b90565b90565b90610f25610f20610f2c92610f01565b610f0d565b8254610eeb565b9055565b634e487b7160e01b5f52601160045260245ffd5b610f53610f599193929361026f565b9261026f565b8203918211610f6457565b610f30565b610f75610f7a9161047f565b610a8b565b90565b610f879054610f69565b90565b610f9e610f99610fa392610b77565b6109fd565b61026f565b90565b610fb2610fb79161047f565b6109bd565b90565b610fc49054610fa6565b90565b5f80fd5b60e01b90565b610fda816105ea565b03610fe157565b5f80fd5b90505190610ff282610fd1565b565b9060208282031261100d5761100a915f01610fe5565b90565b6100ec565b91602061103392949361102c60408201965f8301906105d0565b01906105dd565b565b61103d6100e2565b3d5f823e3d90fd5b5f91031261104f57565b6100ec565b61106a61106361106f926121e2565b600461035e565b610ce0565b61108361107e60058301610515565b610d3c565b6110a061109b611095600584016104ee565b156105ea565b610dbe565b6110c8826110c16110bb6110b6600486016104c7565b61026f565b9161026f565b1115610e40565b6110f86110d7600383016104a3565b6110f16110eb6110e65f610b96565b6100ff565b916100ff565b1415610ec2565b611106600160058301610f10565b61113d61111f611118600484016104c7565b8490610f44565b926111295f610f7d565b90611136600385016104a3565b90916121fe565b8161115061114a5f610f8a565b9161026f565b1161115a575b5050565b61116b6111665f610f7d565b610aca565b602063095ea7b3916111856111806001610fba565b610a28565b906111a35f87956111ae6111976100e2565b97889687958694610fcb565b845260048401611012565b03925af1801561128a5761125e575b506111d06111cb6001610fba565b610a28565b916111e26002632f4f21e293016104a3565b9092803b15611259576112085f80946112136111fc6100e2565b97889687958694610fcb565b845260048401611012565b03925af1801561125457611228575b80611156565b611247905f3d811161124d575b61123f81836101aa565b810190611045565b5f611222565b503d611235565b611035565b610fc7565b61127e9060203d8111611283575b61127681836101aa565b810190610ff4565b6111bd565b503d61126c565b611035565b9061129991610cb0565b565b6112ac906112a7612040565b611377565b565b5f7f496e76616c6964207661756c7400000000000000000000000000000000000000910152565b6112e2600d60209261058b565b6112eb816112ae565b0190565b6113049060208101905f8183039101526112d5565b90565b1561130e57565b6113166100e2565b62461bcd60e51b81528061132c600482016112ef565b0390fd5b61133990610a00565b90565b61134590611330565b90565b61135190611330565b90565b90565b9061136c61136761137392611348565b611354565b8254610c29565b9055565b6113a86113af916113a38161139c6113966113915f610b96565b6100ff565b916100ff565b1415611307565b61133c565b6001611357565b565b6113ba9061129b565b565b906113ce916113c961210f565b611452565b565b5f7f506179656520616c726561647920736574000000000000000000000000000000910152565b611404601160209261058b565b61140d816113d0565b0190565b6114269060208101905f8183039101526113f7565b90565b1561143057565b6114386100e2565b62461bcd60e51b81528061144e60048201611411565b0390fd5b90600361147361146e6114676114da956121e2565b600461035e565b610ce0565b9161148861148360058501610515565b610d3c565b6114a56114a061149a600586016104ee565b156105ea565b610dbe565b6114d36114b38385016104a3565b6114cd6114c76114c25f610b96565b6100ff565b916100ff565b14611429565b9101610c53565b565b906114e6916113bc565b565b606090565b5f90565b5f90565b5f90565b60207f7374000000000000000000000000000000000000000000000000000000000000917f457363726f7720666f722074686973206a6f6220646f6573206e6f74206578695f8201520152565b611553602260409261058b565b61155c816114f9565b0190565b6115759060208101905f818303910152611546565b90565b1561157f57565b6115876100e2565b62461bcd60e51b81528061159d60048201611560565b0390fd5b52565b906115ae906100ff565b9052565b906115bc9061026f565b9052565b906115ca906105ea565b9052565b6115d860e06101d3565b90565b9061168961168060056115ec6115ce565b946116036115fb5f830161045d565b5f88016115a1565b61161b6116126001830161045d565b602088016115a1565b61163361162a600283016104a3565b604088016115a4565b61164b611642600383016104a3565b606088016115a4565b61166361165a600483016104c7565b608088016115b2565b61167a6116718383016104ee565b60a088016115c0565b01610515565b60c084016115c0565b565b611694906115db565b90565b6116a190516100ff565b90565b6116ae905161026f565b90565b6116bb90516105ea565b90565b61173d611703611742926116d06114e8565b506116d96114e8565b506116e26114ed565b506116eb6114ed565b506116f46114f1565b506116fd6114f5565b506121e2565b61173661171d60056117176004859061035e565b01610515565b61173061172a60016105ea565b916105ea565b14611578565b600461035e565b61168b565b905f8201519060208301519261175a60408201611697565b9261176760608301611697565b9261178060a0611779608086016116a4565b94016116b1565b91959493929190565b9061179e9493929161179961210f565b611c97565b565b5f7f496e76616c696420706179657200000000000000000000000000000000000000910152565b6117d4600d60209261058b565b6117dd816117a0565b0190565b6117f69060208101905f8183039101526117c7565b90565b1561180057565b6118086100e2565b62461bcd60e51b81528061181e600482016117e1565b0390fd5b5f7f416d6f756e74206d757374206265203e20300000000000000000000000000000910152565b611856601260209261058b565b61185f81611822565b0190565b6118789060208101905f818303910152611849565b90565b1561188257565b61188a6100e2565b62461bcd60e51b8152806118a060048201611863565b0390fd5b60207f7473000000000000000000000000000000000000000000000000000000000000917f457363726f7720666f722074686973206a6f6220616c726561647920657869735f8201520152565b6118fe602260409261058b565b611907816118a4565b0190565b6119209060208101905f8183039101526118f1565b90565b1561192a57565b6119326100e2565b62461bcd60e51b8152806119486004820161190b565b0390fd5b61195660e06101d3565b90565b5190565b601f602091010490565b1b90565b919060086119869102916119805f1984611967565b92611967565b9181191691161790565b6119a461199f6119a99261026f565b6109fd565b61026f565b90565b90565b91906119c56119c06119cd93611990565b6119ac565b90835461196b565b9055565b6119e3916119dd6114f1565b916119af565b565b5f5b8281106119f357505050565b80611a025f60019385016119d1565b016119e7565b9190601f8111611a18575b505050565b818111611a25575b611a13565b611a3a611a34611a58946103bb565b9161195d565b916020611a468261195d565b9110611a60575b8091019103906119e5565b5f8080611a20565b505f611a4d565b90611a77905f19906008026106ec565b191690565b81611a8691611a67565b906002021790565b90611a9881610587565b9067ffffffffffffffff8211611b5857611abc82611ab68554610388565b85611a08565b602090601f8311600114611af057918091611adf935f92611ae4575b5050611a7c565b90555b565b90915001515f80611ad8565b601f19831691611aff856103bb565b925f5b818110611b4057509160029391856001969410611b26575b50505002019055611ae2565b611b36910151601f841690611a67565b90555f8080611b1a565b91936020600181928787015181550195019201611b02565b610196565b90611b6791611a8e565b565b90611b755f1991610c24565b9181191691161790565b90611b94611b8f611b9b92611990565b6119ac565b8254611b69565b9055565b60081b90565b90611bb261ff0091611b9f565b9181191691161790565b90611bd1611bcc611bd892610f01565b610f0d565b8254611ba5565b9055565b90611c8360c06005611c8994611bff5f8201611bf95f8801611959565b90611b5d565b611c1860018201611c1260208801611959565b90611b5d565b611c3160028201611c2b60408801611697565b90610c53565b611c4a60038201611c4460608801611697565b90610c53565b611c6360048201611c5d608088016116a4565b90611b7f565b611c7b828201611c7560a088016116b1565b90610f10565b0192016116b1565b90611bbc565b565b90611c9591611bdc565b565b929093825f611ca590610b96565b611cae906100ff565b90611cb8906100ff565b1415611cc3906117f9565b805f611cce90610f8a565b90611cd89061026f565b11611ce29061187b565b83611cec906121e2565b93600485611cf99161035e565b600501611d0590610515565b5f611d0f906105ea565b90611d19906105ea565b14611d2390611923565b9492915f92600194611d3361194c565b975f890190611d41916115a1565b6020880190611d4f916115a1565b6040870190611d5d916115a4565b6060860190611d6b916115a4565b6080850190611d79916115b2565b60a0840190611d87916115c0565b60c0830190611d95916115c0565b600490611da19161035e565b90611dab91611c8b565b565b90611dba94939291611789565b565b611dcd90611dc861210f565b611dcf565b565b611de090611ddb612162565b611dea565b611de86121ba565b565b611e00611df9611e05926121e2565b600461035e565b610ce0565b611e19611e1460058301610515565b610d3c565b611e36611e31611e2b600584016104ee565b156105ea565b610dbe565b611e44600160058301610f10565b611e55611e505f610f7d565b610aca565b602063095ea7b391611e6f611e6a6001610fba565b610a28565b90611e985f611e80600488016104c7565b95611ea3611e8c6100e2565b97889687958694610fcb565b845260048401611012565b03925af18015611f8857611f5c575b50611ec5611ec06001610fba565b610a28565b90632f4f21e290611ee46004611edd600284016104a3565b92016104c7565b92803b15611f5757611f095f8094611f14611efd6100e2565b97889687958694610fcb565b845260048401611012565b03925af18015611f5257611f26575b50565b611f45905f3d8111611f4b575b611f3d81836101aa565b810190611045565b5f611f23565b503d611f33565b611035565b610fc7565b611f7c9060203d8111611f81575b611f7481836101aa565b810190610ff4565b611eb2565b503d611f6a565b611035565b611f9690611dbc565b565b60207f66756e6374696f6e000000000000000000000000000000000000000000000000917f4f6e6c7920746865206465706c6f7965722063616e2063616c6c2074686973205f8201520152565b611ff2602860409261058b565b611ffb81611f98565b0190565b6120149060208101905f818303910152611fe5565b90565b1561201e57565b6120266100e2565b62461bcd60e51b81528061203c60048201611fff565b0390fd5b6120653361205f61205961205460036104a3565b6100ff565b916100ff565b14612017565b565b60207f2063616c6c20746869732066756e6374696f6e00000000000000000000000000917f4f6e6c792074686520456e747279506f696e7420636f6e74726163742063616e5f8201520152565b6120c1603360409261058b565b6120ca81612067565b0190565b6120e39060208101905f8183039101526120b4565b90565b156120ed57565b6120f56100e2565b62461bcd60e51b81528061210b600482016120ce565b0390fd5b6121343361212e61212861212360026104a3565b6100ff565b916100ff565b146120e6565b565b90565b61214d61214861215292612136565b6109fd565b61026f565b90565b61215f6002612139565b90565b61216a612245565b61218c612175612155565b5f6121866121816122ba565b6122ce565b01611b7f565b565b90565b6121a56121a06121aa9261218e565b6109fd565b61026f565b90565b6121b76001612191565b90565b6121dc6121c56121ad565b5f6121d66121d16122ba565b6122ce565b01611b7f565b565b5f90565b6121ea6121de565b506121f36121de565b506020815191012090565b91612217916122119184916001926122d1565b156105ea565b61221e5750565b61222a61224191610aca565b5f918291635274afe760e01b835260048301610725565b0390fd5b61224d61233b565b61225357565b5f633ee5aeb560e01b81528061226b6004820161014c565b0390fd5b90565b61228661228161228b9261226f565b610c24565b61030e565b90565b6122b77f9b779b17422d0df92223018b32b4d1fa46e071723d6817e2486d003becc55f00612272565b90565b6122c26121de565b506122cb61228e565b90565b90565b90919392936122de6114f5565b5063a9059cbb60e01b92604051935f525f1960601c1660045260245260205f60448180855af19360015f5114851615612319575b5050604052565b8492941516612332575f903b113d151616915f80612312565b833d5f823e3d90fd5b6123436114f5565b5061235e5f6123586123536122ba565b6122ce565b016104c7565b61237761237161236c612155565b61026f565b9161026f565b149056fea264697066735822122018f8c2832d698958f2a1ad69d6442e1751342f6a30ff04435b42eef06cdaf72964736f6c63430008210033","linkReferences":{}},"methodIdentifiers":{"createEscrow(string,string,address,address,uint256)":"ed51b9ce","deployer()":"d5f39488","entryPoint()":"b0d691fe","escrowData(bytes32)":"6c34f698","getEscrowDetails(string)":"dc906182","refund(string)":"fe5f2e88","releaseFunds(string,uint256)":"6ba2846b","setEntryPointAddress(address)":"0e86f506","setPayee(string,address)":"d42a84b3","setVaultAddress(address)":"85535cc5","token()":"fc0c546a","vault()":"fbfa77cf"},"id":34}