{"abi":[{"type":"constructor","inputs":[{"name":"_token","type":"address","internalType":"contract IERC20"},{"name":"_deployer","type":"address","internalType":"address"}],"stateMutability":"nonpayable"},{"type":"function","name":"addEScrow","inputs":[{"name":"_escrow","type":"address","internalType":"address"}],"outputs":[],"stateMutability":"nonpayable"},{"type":"function","name":"addEntryPoint","inputs":[{"name":"_entryPoint","type":"address","internalType":"address"}],"outputs":[],"stateMutability":"nonpayable"},{"type":"function","name":"depositFor","inputs":[{"name":"_for","type":"address","internalType":"address"},{"name":"_amount","type":"uint256","internalType":"uint256"}],"outputs":[],"stateMutability":"nonpayable"},{"type":"function","name":"getBalance","inputs":[{"name":"_of","type":"address","internalType":"address"}],"outputs":[{"name":"","type":"uint256","internalType":"uint256"}],"stateMutability":"view"},{"type":"function","name":"rechargeVault","inputs":[{"name":"_amount","type":"uint256","internalType":"uint256"}],"outputs":[],"stateMutability":"nonpayable"},{"type":"function","name":"token","inputs":[],"outputs":[{"name":"","type":"address","internalType":"contract IERC20"}],"stateMutability":"view"},{"type":"function","name":"transfer","inputs":[{"name":"_from","type":"address","internalType":"address"},{"name":"_to","type":"address","internalType":"address"},{"name":"_amount","type":"uint256","internalType":"uint256"}],"outputs":[],"stateMutability":"nonpayable"},{"type":"error","name":"SafeERC20FailedOperation","inputs":[{"name":"token","type":"address","internalType":"address"}]}],"bytecode":{"object":"0x6080604052346100305761001a610014610133565b9061020a565b610022610035565b611046610223823961104690f35b61003b565b60405190565b5f80fd5b601f801991011690565b634e487b7160e01b5f52604160045260245ffd5b906100679061003f565b810190811060018060401b0382111761007f57604052565b610049565b90610097610090610035565b928361005d565b565b5f80fd5b60018060a01b031690565b6100b19061009d565b90565b6100bd906100a8565b90565b6100c9816100b4565b036100d057565b5f80fd5b905051906100e1826100c0565b565b6100ec816100a8565b036100f357565b5f80fd5b90505190610104826100e3565b565b919060408382031261012e578061012261012b925f86016100d4565b936020016100f7565b90565b610099565b6101516112698038038061014681610084565b928339810190610106565b9091565b5f1b90565b9061016b60018060a01b0391610155565b9181191691161790565b90565b61018c6101876101919261009d565b610175565b61009d565b90565b61019d90610178565b90565b6101a990610194565b90565b90565b906101c46101bf6101cb926101a0565b6101ac565b825461015a565b9055565b6101d890610178565b90565b6101e4906101cf565b90565b90565b906101ff6101fa610206926101db565b6101e7565b825461015a565b9055565b906102196102209260046101af565b60036101ea565b56fe60806040526004361015610013575b6103e1565b61001d5f3561008c565b80632f4f21e21461008757806332c8079114610082578063366dde4b1461007d578063470908c314610078578063beabacc814610073578063f8b2cb4f1461006e5763fc0c546a0361000e576103ac565b6102cb565b610275565b610208565b6101b7565b610184565b610132565b60e01c90565b60405190565b5f80fd5b5f80fd5b60018060a01b031690565b6100b4906100a0565b90565b6100c0816100ab565b036100c757565b5f80fd5b905035906100d8826100b7565b565b90565b6100e6816100da565b036100ed57565b5f80fd5b905035906100fe826100dd565b565b9190604083820312610128578061011c610125925f86016100cb565b936020016100f1565b90565b61009c565b5f0190565b346101615761014b610145366004610100565b906106e0565b610153610092565b8061015d8161012d565b0390f35b610098565b9060208282031261017f5761017c915f016100cb565b90565b61009c565b346101b25761019c610197366004610166565b6107f1565b6101a4610092565b806101ae8161012d565b0390f35b610098565b346101e5576101cf6101ca366004610166565b6108c3565b6101d7610092565b806101e18161012d565b0390f35b610098565b9060208282031261020357610200915f016100f1565b90565b61009c565b346102365761022061021b3660046101ea565b610950565b610228610092565b806102328161012d565b0390f35b610098565b90916060828403126102705761026d610256845f85016100cb565b9361026481602086016100cb565b936040016100f1565b90565b61009c565b346102a45761028e61028836600461023b565b91610c47565b610296610092565b806102a08161012d565b0390f35b610098565b6102b2906100da565b9052565b91906102c9905f602085019401906102a9565b565b346102fb576102f76102e66102e1366004610166565b610c58565b6102ee610092565b918291826102b6565b0390f35b610098565b5f91031261030a57565b61009c565b1c90565b60018060a01b031690565b61032e906008610333930261030f565b610313565b90565b90610341915461031e565b90565b61035060045f90610336565b90565b90565b61036a61036561036f926100a0565b610353565b6100a0565b90565b61037b90610356565b90565b61038790610372565b90565b6103939061037e565b9052565b91906103aa905f6020850194019061038a565b565b346103dc576103bc366004610300565b6103d86103c7610344565b6103cf610092565b91829182610397565b0390f35b610098565b5f80fd5b906103f7916103f2610d4a565b610658565b565b90565b61041061040b610415926103f9565b610353565b6100da565b90565b60209181520190565b5f7f496e76616c6964206465706f73697420616d6f756e7400000000000000000000910152565b6104556016602092610418565b61045e81610421565b0190565b6104779060208101905f818303910152610448565b90565b1561048157565b610489610092565b62461bcd60e51b81528061049f60048201610462565b0390fd5b6104b76104b26104bc926103f9565b610353565b6100a0565b90565b6104c8906104a3565b90565b5f7f496e76616c696420757365722061646472657373000000000000000000000000910152565b6104ff6014602092610418565b610508816104cb565b0190565b6105219060208101905f8183039101526104f2565b90565b1561052b57565b610533610092565b62461bcd60e51b8152806105496004820161050c565b0390fd5b5f1c90565b61055e6105639161054d565b610313565b90565b6105709054610552565b90565b61057c90610372565b90565b61058890610372565b90565b906105959061057f565b5f5260205260405f2090565b90565b6105b06105b59161054d565b6105a1565b90565b6105c290546105a4565b90565b634e487b7160e01b5f52601160045260245ffd5b6105e86105ee919392936100da565b926100da565b82018092116105f957565b6105c5565b5f1b90565b9061060f5f19916105fe565b9181191691161790565b61062d610628610632926100da565b610353565b6100da565b90565b90565b9061064d61064861065492610619565b610635565b8254610603565b9055565b6106d86106c96106de9361067e816106786106725f6103fc565b916100da565b1161047a565b6106a38461069c6106966106915f6104bf565b6100ab565b916100ab565b1415610524565b6106c26106b06004610566565b336106ba30610573565b908492610dc8565b925f61058b565b916106d3836105b8565b6105d9565b90610638565b565b906106ea916103e5565b565b6106fd906106f8610ebb565b6107bf565b565b5f7f496e76616c696420657363726f77206164647265737300000000000000000000910152565b6107336016602092610418565b61073c816106ff565b0190565b6107559060208101905f818303910152610726565b90565b1561075f57565b610767610092565b62461bcd60e51b81528061077d60048201610740565b0390fd5b9061079260018060a01b03916105fe565b9181191691161790565b90565b906107b46107af6107bb9261057f565b61079c565b8254610781565b9055565b6107ef906107e8816107e16107db6107d65f6104bf565b6100ab565b916100ab565b1415610758565b600161079f565b565b6107fa906106ec565b565b61080d90610808610ebb565b610891565b565b5f7f496e76616c696420656e74727920706f696e7420616464726573730000000000910152565b610843601b602092610418565b61084c8161080f565b0190565b6108659060208101905f818303910152610836565b90565b1561086f57565b610877610092565b62461bcd60e51b81528061088d60048201610850565b0390fd5b6108c1906108ba816108b36108ad6108a85f6104bf565b6100ab565b916100ab565b1415610868565b600261079f565b565b6108cc906107fc565b565b5f7f496e76616c696420726563686172676520616d6f756e74000000000000000000910152565b6109026017602092610418565b61090b816108ce565b0190565b6109249060208101905f8183039101526108f5565b90565b1561092e57565b610936610092565b62461bcd60e51b81528061094c6004820161090f565b0390fd5b6109b2906109708161096a6109645f6103fc565b916100da565b11610927565b61098f61097d6004610566565b3361098730610573565b908492610dc8565b6109ac61099d5f339061058b565b916109a7836105b8565b6105d9565b90610638565b565b906109c792916109c2610d4a565b610b73565b565b5f7f496e76616c6964207472616e7366657220616d6f756e74000000000000000000910152565b6109fd6017602092610418565b610a06816109c9565b0190565b610a1f9060208101905f8183039101526109f0565b90565b15610a2957565b610a31610092565b62461bcd60e51b815280610a4760048201610a0a565b0390fd5b5f7f496e73756666696369656e742062616c616e636520746f207472616e73666572910152565b610a7e60208092610418565b610a8781610a4b565b0190565b610aa09060208101905f818303910152610a72565b90565b15610aaa57565b610ab2610092565b62461bcd60e51b815280610ac860048201610a8b565b0390fd5b5f7f496e76616c6964206164647265737320746f207472616e736665720000000000910152565b610b00601b602092610418565b610b0981610acc565b0190565b610b229060208101905f818303910152610af3565b90565b15610b2c57565b610b34610092565b62461bcd60e51b815280610b4a60048201610b0d565b0390fd5b610b5d610b63919392936100da565b926100da565b8203918211610b6e57565b6105c5565b90610c30610c4593610c29610c3f93610b9e83610b98610b925f6103fc565b916100da565b11610a22565b610bcd83610bc6610bc0610bbb610bb65f8c9061058b565b6105b8565b6100da565b916100da565b1115610aa3565b610bf281610beb610be5610be05f6104bf565b6100ab565b916100ab565b1415610b25565b610c1786610c10610c0a610c055f6104bf565b6100ab565b916100ab565b1415610b25565b610c216004610566565b908391610ee2565b925f61058b565b91610c3a836105b8565b610b4e565b90610638565b565b90610c5292916109b4565b565b5f90565b610c6e610c7391610c67610c54565b505f61058b565b6105b8565b90565b60018060a01b031690565b610c8d610c929161054d565b610c76565b90565b610c9f9054610c81565b90565b60207f616e2063616c6c20746869732066756e6374696f6e0000000000000000000000917f4f6e6c792074686520657363726f77206f7220656e74727920706f696e7420635f8201520152565b610cfc6035604092610418565b610d0581610ca2565b0190565b610d1e9060208101905f818303910152610cef565b90565b15610d2857565b610d30610092565b62461bcd60e51b815280610d4660048201610d09565b0390fd5b33610d66610d60610d5b6001610c95565b6100ab565b916100ab565b148015610d79575b610d7790610d21565b565b50610d7733610d99610d93610d8e6002610c95565b6100ab565b916100ab565b149050610d6e565b151590565b610daf906100ab565b9052565b9190610dc6905f60208501940190610da6565b565b9290610de592610ddf928592919091600193610f2d565b15610da1565b610dec5750565b610df8610e0f9161037e565b5f918291635274afe760e01b835260048301610db3565b0390fd5b60207f66756e6374696f6e000000000000000000000000000000000000000000000000917f4f6e6c7920746865206465706c6f7965722063616e2063616c6c2074686973205f8201520152565b610e6d6028604092610418565b610e7681610e13565b0190565b610e8f9060208101905f818303910152610e60565b90565b15610e9957565b610ea1610092565b62461bcd60e51b815280610eb760048201610e7a565b0390fd5b610ee033610eda610ed4610ecf6003610c95565b6100ab565b916100ab565b14610e92565b565b91610efb91610ef5918491600192610fa6565b15610da1565b610f025750565b610f0e610f259161037e565b5f918291635274afe760e01b835260048301610db3565b0390fd5b5f90565b91949394929092610f3c610f29565b506323b872dd60e01b93604051945f525f1960601c166004525f1960601c1660245260445260205f60648180855af19360015f5114851615610f84575b50506040525f606052565b8492941516610f9d575f903b113d151616915f80610f79565b833d5f823e3d90fd5b9091939293610fb3610f29565b5063a9059cbb60e01b92604051935f525f1960601c1660045260245260205f60448180855af19360015f5114851615610fee575b5050604052565b8492941516611007575f903b113d151616915f80610fe7565b833d5f823e3d90fdfea26469706673582212204df31d706501838cd0336bbbc2f28a5ac82e4ab69819cc6be38f8f4bb74029ce64736f6c63430008210033","linkReferences":{}},"methodIdentifiers":{"addEScrow(address)":"32c80791","addEntryPoint(address)":"366dde4b","depositFor(address,uint256)":"2f4f21e2","getBalance(address)":"f8b2cb4f","rechargeVault(uint256)":"470908c3","token()":"fc0c546a","transfer(address,address,uint256)":"beabacc8"},"id":36}